:020000040800F2
:1000000000000120FD0A0008FD04000805050008A5
:100010000D050008150500081D050008000000007A
:10002000000000000000000000000000250500089E
:1000300031050008000000003D05000849050008E2
:10004000450B0008450B0008450B0008450B000850
:10005000450B0008450B0008450B0008450B000840
:10006000450B0008450B0008450B0008450B000830
:10007000450B0008450B0008450B0008450B000820
:10008000450B0008450B0008450B0008450B000810
:10009000450B0008450B0008450B0008450B000800
:1000A000450B0008450B0008450B0008450B0008F0
:1000B000450B0008450B0008450B0008450B0008E0
:1000C000450B0008450B0008450B0008450B0008D0
:1000D000450B0008450B0008450B0008450B0008C0
:1000E000450B0008450B0008450B0008450B0008B0
:1000F000450B0008450B0008450B0008450B0008A0
:10010000450B0008450B0008450B0008450B00088F
:10011000450B0008450B0008450B0008450B00087F
:10012000450B0008450B0008450B0008450B00086F
:1001300000000000000000000000000000000000BF
:1001400000000000000000000000000000000000AF
:10015000000000000000000000000000000000009F
:10016000000000000000000000000000000000008F
:10017000000000000000000000000000000000007F
:10018000000000000000000000000000000000006F
:10019000000000000000000000000000000000005F
:1001A000000000000000000000000000000000004F
:1001B000000000000000000000000000000000003F
:1001C000000000000000000000000000000000002F
:1001D000000000000000000000000000000000001F
:0401E0005FF8E0F1F3
:1001E40010B5054C237833B9044B13B10448AFF36D
:1001F40000800123237010BD0C00002000000000CB
:100204008C1E000808B5034B1BB103490348AFF328
:10021400008008BD00000000100000208C1E0008B3
:1002240080B586B000AF07F1080300221A605A6057
:100234009A60DA60114B9B69104A43F0040393619E
:100244000E4B9B6903F004037B607B6800221C2136
:100254000B4800F075FF1C23BB600123FB600023E7
:100264003B6102237B6107F108031946044800F04F
:10027400D3FD00BF1837BD4680BD00BF001002404B
:100284000008014080B582B002AF00F05BFC00F0D2
:1002940039F8FFF7C5FF00F07DF800F0E7F900201A
:1002A40000F010FB002301934FF6FF7300930F4BF4
:1002B4000F4A0A210A2000F0D1FB002301934FF6D4
:1002C400E07300930B4B0C4A23210A2000F0C6FB79
:1002D400002301934FF4FC630093084B084A372131
:1002E4000A2000F0BBFB00BFFDE700BF882B00081D
:1002F400A41E000890250008B41E0008142100085C
:10030400C41E000880B590B000AF07F1180328227E
:100314000021184601F08BFD3B1D00221A605A6033
:100324009A60DA601A610223BB610123BB62102365
:10033400FB6202237B630023BB634FF46013FB6304
:1003440007F11803184600F013FF0346002B01D0F1
:1003540000F019F80F237B600223BB600023FB60CD
:100364004FF480633B6100237B613B1D02211846EF
:1003740001F080F90346002B01D000F004F800BF1F
:100384004037BD4680BD80B400AF72B600BF00BF29
:10039400FDE7000080B500AF174B184A1A60164BF2
:1003A4004FF482725A60144B00229A60124B00225E
:1003B400DA60114B00221A610F4B00225A610E4B76
:1003C4004FF400729A610C4B1022DA610A4B00223E
:1003D4001A62094B00225A62074B00229A62064BAA
:1003E4000A22DA62044801F0A1FA0346002B01D084
:1003F400FFF7C9FF00BF80BD280000200030014086
:1004040080B588B000AF786007F1100300221A604D
:100414005A609A60DA607B681B681B4A93422FD14A
:100424001A4B9B69194A43F480539361174B9B6998
:1004340003F48053FB60FB68144B9B69134A43F03D
:1004440004039361114B9B6903F00403BB60BB6815
:10045400A0233B6102237B610323FB6107F11003AB
:1004640019460B4800F0D8FC40233B6100237B6114
:100474000023BB6107F110031946054800F0CCFCCA
:1004840000BF2037BD4680BD00300140001002404F
:100494000008014080B485B000AF154B9B69144A35
:1004A40043F001039361124B9B6903F00103BB60AA
:1004B400BB680F4BDB690E4A43F08053D3610C4B8E
:1004C400DB6903F080537B607B680A4B5B68FB60ED
:1004D400FB6823F0E063FB60FB6843F00073FB60A0
:1004E400044AFB68536000BF1437BD4680BC7047A4
:1004F400001002400000014080B400AF00BFFDE7DF
:1005040080B400AF00BFFDE780B400AF00BFFDE7DB
:1005140080B400AF00BFFDE780B400AF00BFFDE7CB
:1005240080B400AF00BFBD4680BC704780B400AF4C
:1005340000BFBD4680BC704780B400AF00BFBD465D
:1005440080BC704780B500AF00F042FB00BF80BDA7
:1005540080B400AF00BFBD4680BC704780B582B098
:1005640000AF0346FB7100221021074800F0E8FDAC
:10057400F91D4FF0FF330122044801F05BFA00BF7C
:100584000837BD4680BD00BF000801402800002098
:1005940080B582B000AF0346FB71012210210748E9
:1005A40000F0CEFDF91D4FF0FF330122044801F0A5
:1005B40041FA00BF0837BD4680BD00BF00080140B6
:1005C4002800002080B584B000AF0346FB80FB8880
:1005D4001B0A9BB2DBB23B73FB88DBB27B73012249
:1005E4001021074800F0ACFD07F10C014FF0FF3378
:1005F4000222044801F01EFA00BF1037BD4680BD38
:10060400000801402800002080B584B000AF0346F4
:100614003960FB80FB881B0A9BB2DBB2FB73FB884F
:10062400DBB2BB73012210210E4800F089FD0FE0FC
:1006340007F10F014FF0FF3301220B4801F0FAF9E3
:1006440007F10E014FF0FF330122074801F0F2F9E0
:100654003B685A1E3A60002BEAD100BF00BF103736
:10066400BD4680BD000801402800002080B500AFD1
:1006740000220821404800F063FD0A2000F0C4FA7B
:10068400012208213C4800F05BFD782000F0BCFA10
:100694000120FFF763FF782000F0B6FACB20FFF7C4
:1006A4005DFF3920FFF774FF2C20FFF771FF002056
:1006B400FFF76EFF3420FFF76BFF0220FFF768FFA0
:1006C400CF20FFF74BFF0020FFF762FFC120FFF7A9
:1006D4005FFF3020FFF75CFFE820FFF73FFF852036
:1006E400FFF756FF0020FFF753FF7820FFF750FF76
:1006F400EA20FFF733FF0020FFF74AFF0020FFF74F
:1007040047FFCB20FFF72AFF3920FFF741FF2C20BA
:10071400FFF73EFF0020FFF73BFF3420FFF738FFD1
:100724000220FFF735FFF720FFF718FF2020FFF71F
:100734002FFFE820FFF712FF0020FFF729FF00201A
:10074400FFF726FF3A20FFF709FF5520FFF720FFA8
:10075400002000F013F81120FFF700FF782000F0CC
:1007640053FA2920FFF7FAFE142000F04DFA012075
:1007740000F0ACF900BF80BD0008014080B582B034
:1007840000AF0346FB713620FFF7E8FEFB79032B2D
:1007940036D801A252F823F0AD070008C3070008B9
:1007A400D9070008EF0700084820FFF7F1FE164BB1
:1007B400F0221A80154B4FF4A0721A8020E02820F2
:1007C400FFF7E6FE104B4FF4A0721A800F4BF02295
:1007D4001A8015E08820FFF7DBFE0B4BF0221A800D
:1007E4000A4B4FF4A0721A800AE0E820FFF7D0FE0B
:1007F400054B4FF4A0721A80044BF0221A8000BFFC
:1008040000BF0837BD4680BD800000208200002064
:1008140090B585B000AF0446084611461A462346F3
:10082400FB800346BB800B467B8013463B80FA88E3
:100834007B8813449BB2013BFB81BA883B881344F9
:100844009BB2013BBB812A20FFF788FEFB88184638
:10085400FFF7B8FEFB891846FFF7B4FE2B20FFF71D
:100864007DFEBB881846FFF7ADFEBB891846FFF72F
:10087400A9FE2C20FFF772FE00BF1437BD4690BDC1
:1008840090B583B000AF0446084611461A46234685
:10089400FB800346BB800B467B8013463B803B8832
:1008A4007A88B988F888FFF7B3FF7B883A8803FB16
:1008B40002F23B8B11461846FFF7A6FE00BF0C3729
:1008C400BD4690BD80B584B002AF0346FB80074BA4
:1008D4001A88074B1988FB8800930B4600210020D7
:1008E400FFF7CEFF00BF0837BD4680BD8000002063
:1008F4008200002080B58CB000AF7B600346FB8192
:100904000B46BB811346FB72FB7A1F2B02D9FB7A81
:100914007E2B03D9002387F82F3003E0FB7A203B9A
:1009240087F82F307B681B7887F82C307B685B78DE
:1009340087F82B3097F82B300733002B00DA073376
:10094400DB1087F82A307B685A6897F82F3097F8BD
:100954002C1001FB03F397F82A1001FB03F3134453
:100964007B6297F82C309AB297F82B309BB2B989F6
:10097400F889FFF74DFF01221021364800F0E0FB13
:10098400002387F82E305AE0002387F82D303FE00B
:1009940097F82E30DB08DBB297F82C2002FB03F328
:1009A400DAB297F82D30134487F8233097F82E30B5
:1009B40003F0070387F8223097F823307A6A134448
:1009C4001B781A4697F8223042FA03F303F0010326
:1009D400002B01D03B8F00E0BB8F3B843B8C1B0A78
:1009E4009AB297F82D305B00D2B230333B4403F80F
:1009F400202C97F82D305B0001333A8CD2B230337F
:100A04003B4403F8202C97F82D30013387F82D3020
:100A140097F82D2097F82C309A42B9D397F82C30B8
:100A24009BB25B009AB207F110014FF0FF330A4802
:100A340001F000F897F82E30013387F82E3097F83C
:100A44002E2097F82B309A429ED300BF00BF303738
:100A5400BD4680BD000801402800002080B588B054
:100A640002AFBA607B600346FB810B46BB81FB8906
:100A7400FB82BB89BB8220E0BB681B780A2B08D1B0
:100A8400FB89FB827B685B781A46BB8A1344BB8272
:100A940010E0BB681A78B98AF88ABB8C01933B8C46
:100AA40000937B68FFF726FF7B681B781A46FB8A56
:100AB4001344FB82BB680133BB60BB681B78002B0B
:100AC400DAD100BF00BF1837BD4680BD80B582B003
:100AD40000AF0346FB71FB79002B14BF01230023F5
:100AE400DBB21A460421034800F02AFB00BF083792
:100AF400BD4680BD00080140FFF72AFD0B480C49A4
:100B04000C4A002302E0D458C4500433C4188C4265
:100B1400F9D3094A094C002301E013600432A242CC
:100B2400FBD301F08DF9FFF7ADFB70470000002007
:100B34000C000020BC2B00080C00002088000020C2
:100B4400FEE7000080B500AF084B1B68074A43F07E
:100B540010031360032000F02BF90F2000F008F8B5
:100B6400FFF798FC0023184680BD00BF0020024018
:100B740080B582B000AF7860124B1A68124B1B78B4
:100B840019464FF47A73B3FBF1F3B2FBF3F318464F
:100B940000F035F90346002B01D001230EE07B68F9
:100BA4000F2B0AD8002279684FF0FF3000F00BF9C0
:100BB400064A7B681360002300E0012318460837C7
:100BC400BD4680BD00000020080000200400002075
:100BD40080B400AF054B1B781A46054B1B681344C1
:100BE400034A136000BFBD4680BC70470800002064
:100BF4008400002080B400AF024B1B681846BD4639
:100C040080BC70478400002080B584B000AF786059
:100C1400FFF7F0FFB8607B68FB60FB68B3F1FF3F50
:100C240005D00A4B1B781A46FB681344FB6000BFCF
:100C3400FFF7E0FF0246BB68D31AFA689A42F7D876
:100C440000BF00BF1037BD4680BD00BF08000020B4
:100C540080B485B000AF78607B6803F00703FB6065
:100C64000C4BDB68BB60BA684FF6FF031340BB60F4
:100C7400FB681A02BB68134343F0BF6343F40033B9
:100C8400BB60044ABB68D36000BF1437BD4680BC58
:100C9400704700BF00ED00E080B400AF044BDB6898
:100CA4001B0A03F007031846BD4680BC704700BF0B
:100CB40000ED00E080B483B000AF03463960FB71FF
:100CC40097F90730002B0ADB3B68DAB20C4997F935
:100CD40007301201D2B20B4483F800230AE03B68C8
:100CE400DAB20849FB7903F00F03043B1201D2B2D4
:100CF4000B441A7600BF0C37BD4680BC704700BF5A
:100D040000E100E000ED00E080B489B000AFF860DD
:100D1400B9607A60FB6803F00703FB61FB69C3F108
:100D24000703042B28BF0423BB61FB690433062B90
:100D340002D9FB69033B00E000237B614FF0FF32E3
:100D4400BB6902FA03F3DA43BB681A407B699A4031
:100D54004FF0FF317B6901FA03F3D9437B680B4001
:100D6400134318462437BD4680BC704780B582B013
:100D740000AF78607B68013BB3F1807F01D301232E
:100D84000FE00A4A7B68013B53600F214FF0FF30AC
:100D9400FFF790FF054B00229A60044B07221A606C
:100DA400002318460837BD4680BD00BF10E000E0B0
:100DB40080B582B000AF78607868FFF749FF00BF64
:100DC4000837BD4680BD80B586B000AF0346B96024
:100DD4007A60FB7300237B61FFF75EFF78617A68BA
:100DE400B9687869FFF790FF024697F90F3011460A
:100DF4001846FFF75FFF00BF1837BD4680BD80B5BA
:100E040082B000AF78607868FFF7B0FF03461846F9
:100E14000837BD4680BD000080B48BB000AF786059
:100E2400396000237B6200233B6279E101227B6A03
:100E340002FA03F3FB613B681B68FA691340BB6168
:100E4400BA69FB699A4240F068813B685B68964ADC
:100E540093425ED0944A934275D8944A934258D0B0
:100E6400924A93426FD8924A934252D0904A934204
:100E740069D8904A93424CD08E4A934263D88E4AA2
:100E8400934246D08C4A93425DD8122B2AD8122B17
:100E940059D801A252F823F0170F0008F10E0008E8
:100EA400030F0008450F00084B0F00084B0F000804
:100EB4004B0F00084B0F00084B0F00084B0F0008A6
:100EC4004B0F00084B0F00084B0F00084B0F000896
:100ED4004B0F00084B0F00084B0F0008F90E0008D9
:100EE4000D0F0008754A934213D02CE03B68DB6871
:100EF4003B6229E03B68DB6804333B6224E03B68E7
:100F0400DB6808333B621FE03B68DB680C333B6201
:100F14001AE03B689B68002B02D104233B6213E078
:100F24003B689B68012B05D108233B627B68FA6907
:100F34001A6109E008233B627B68FA695A6103E09D
:100F440000233B6200E000BFBB69FF2B01D87B6834
:100F540001E07B6804337B61BB69FF2B02D87B6AA9
:100F64009B0002E07B6A083B9B003B617B691A683B
:100F74000F213B6901FA03F3DB431A40396A3B69E9
:100F840001FA03F31A437B691A603B685B6803F058
:100F94008053002B00F0C180494B9B69484A43F0C1
:100FA40001039361464B9B6903F00103BB60BB687B
:100FB400444A7B6A9B08023352F82330FB607B6A05
:100FC40003F003039B000F2202FA03F3DB43FA68E6
:100FD4001340FB607B683C4A93421FD07B683B4ACA
:100FE400934219D07B683A4A934213D07B68394ABA
:100FF40093420DD07B68384A934207D07B68374AC6
:10100400934201D105230AE0062308E0042306E005
:10101400032304E0022302E0012300E000237A6AB0
:1010240002F0030292009340FA681343FB602549DF
:101034007B6A9B080233FA6841F823203B685B68AB
:1010440003F48013002B06D0254B9A682449BB690E
:1010540013438B6006E0224B9A68BB69DB4320494B
:1010640013408B603B685B6803F40013002B06D0CD
:101074001B4BDA681A49BB691343CB6006E0184B73
:10108400DA68BB69DB4316491340CB603B685B6895
:1010940003F40033002B25D0114B5A681049BB6967
:1010A40013434B6025E000BF0000321000003110F4
:1010B4000000221000002110000012100000111086
:1010C400001002400000014000080140000C0140F3
:1010D400001001400014014000180140001C0140B0
:1010E40000040140154B5A68BB69DB4313491340A4
:1010F4004B603B685B6803F48033002B06D00F4BD6
:101104001A680E49BB6913430B6006E00B4B1A685F
:10111400BB69DB43094913400B607B6A01337B6283
:101124003B681A687B6A22FA03F3002B7FF47EAED5
:1011340000BF00BF2C37BD4680BC7047000401408F
:1011440080B483B000AF78600B467B8013467B701D
:101154007B78002B03D07A887B681A6103E07B8854
:101164001A047B681A6100BF0C37BD4680BC704707
:1011740080B586B000AF78607B68002B01D1012375
:1011840072E27B681B6803F00103002B00F0878088
:10119400924B5B6803F00C03042B0CD08F4B5B6801
:1011A40003F00C03082B12D18C4B5B6803F48033DF
:1011B400B3F5803F0BD1894B1B6803F40033002B3C
:1011C4006CD07B685B68002B68D101234CE27B68A0
:1011D4005B68B3F5803F06D1804B1B687F4A43F4BC
:1011E400803313602EE07B685B68002B0CD17B4B53
:1011F4001B687A4A23F480331360784B1B68774A60
:1012040023F4802313601DE07B685B68B3F5A02F93
:101214000CD1724B1B68714A43F4802313606F4BEB
:101224001B686E4A43F4803313600BE06B4B1B68FE
:101234006A4A23F480331360684B1B68674A23F4BB
:10124400802313607B685B68002B13D0FFF7D2FC0C
:10125400386108E0FFF7CEFC02463B69D31A642BE1
:1012640001D9032300E25D4B1B6803F40033002B18
:10127400F0D014E0FFF7BEFC386108E0FFF7BAFCD9
:1012840002463B69D31A642B01D90323ECE1534B87
:101294001B6803F40033002BF0D100E000BF7B682F
:1012A4001B6803F00203002B63D04C4B5B6803F014
:1012B4000C03002B0BD0494B5B6803F00C03082B89
:1012C4001CD1464B5B6803F48033002B16D1434B8F
:1012D4001B6803F00203002B05D07B681B69012BFC
:1012E40001D00123C0E13D4B1B6823F0F8027B6869
:1012F4005B69DB00394913430B603AE07B681B6987
:10130400002B20D0364B01221A60FFF773FC3861A2
:1013140008E0FFF76FFC02463B69D31A022B01D9A0
:101324000323A1E12D4B1B6803F00203002BF0D033
:101334002A4B1B6823F0F8027B685B69DB002749B2
:1013440013430B6015E0264B00221A60FFF752FC92
:10135400386108E0FFF74EFC02463B69D31A022BC2
:1013640001D9032380E11D4B1B6803F00203002B0A
:10137400F0D17B681B6803F00803002B3AD07B682C
:101384009B69002B19D0174B01221A60FFF732FC1E
:10139400386108E0FFF72EFC02463B69D31A022BA2
:1013A40001D9032360E10D4B5B6A03F00203002BB8
:1013B400F0D0012000F09CFA1CE00A4B00221A60D5
:1013C400FFF718FC38610FE0FFF714FC02463B6995
:1013D400D31A022B08D9032346E100BF00100240B0
:1013E4000000424280044242924B5B6A03F00203D3
:1013F400002BE9D17B681B6803F00403002B00F089
:10140400A6800023FB758B4BDB6903F08053002B14
:101414000DD1884BDB69874A43F08053D361854BF8
:10142400DB6903F08053BB60BB680123FB75824B0F
:101434001B6803F48073002B18D17F4B1B687E4A12
:1014440043F480731360FFF7D5FB386108E0FFF7BE
:10145400D1FB02463B69D31A642B01D9032303E170
:10146400754B1B6803F48073002BF0D07B68DB683A
:10147400012B06D16F4B1B6A6E4A43F001031362C2
:101484002DE07B68DB68002B0CD16A4B1B6A694A30
:1014940023F001031362674B1B6A664A23F00403BB
:1014A40013621CE07B68DB68052B0CD1614B1B6A63
:1014B400604A43F0040313625E4B1B6A5D4A43F0C7
:1014C400010313620BE05B4B1B6A5A4A23F00103CE
:1014D4001362584B1B6A574A23F0040313627B6858
:1014E400DB68002B15D0FFF785FB38610AE0FFF7B6
:1014F40081FB02463B69D31A41F28832934201D9F7
:101504000323B1E04B4B1B6A03F00203002BEED024
:1015140014E0FFF76FFB38610AE0FFF76BFB02464C
:101524003B69D31A41F28832934201D903239BE0E9
:10153400404B1B6A03F00203002BEED1FB7D012B11
:1015440005D13C4BDB693B4A23F08053D3617B6874
:10155400DB69002B00F08780364B5B6803F00C03DB
:10156400082B61D07B68DB69022B46D1334B002208
:101574001A60FFF73FFB386108E0FFF73BFB0246C8
:101584003B69D31A022B01D903236DE0294B1B6855
:1015940003F00073002BF0D17B681B6AB3F5803F26
:1015A40008D1244B5B6823F400327B689B68214993
:1015B40013434B601F4B5B6823F474127B68196AF6
:1015C4007B685B6A0B431B4913434B601B4B012233
:1015D4001A60FFF70FFB386108E0FFF70BFB0246C8
:1015E4003B69D31A022B01D903233DE0114B1B683D
:1015F40003F00073002BF0D035E0104B00221A608A
:10160400FFF7F8FA386108E0FFF7F4FA02463B699D
:10161400D31A022B01D9032326E0064B1B6803F0DF
:101624000073002BF0D11EE07B68DB69012B07D12E
:10163400012319E0001002400070004060004242A3
:101644000B4B5B68FB60FB6803F480327B681B6AAE
:101654009A4206D1FB6803F470127B685B6A9A4273
:1016640001D0012300E0002318461837BD4680BD91
:101674000010024080B584B000AF786039607B68A8
:10168400002B01D10123D0E06A4B1B6803F0070350
:101694003A689A4210D9674B1B6823F007026549E0
:1016A4003B6813430B60634B1B6803F007033A6802
:1016B4009A4201D00123B8E07B681B6803F002035F
:1016C400002B20D07B681B6803F00403002B05D09B
:1016D400594B5B68584A43F4E06353607B681B686A
:1016E40003F00803002B05D0534B5B68524A43F4C4
:1016F40060535360504B5B6823F0F0027B689B6837
:101704004D4913434B607B681B6803F00103002BB6
:1017140040D07B685B68012B07D1474B1B6803F4FF
:101724000033002B15D101237FE07B685B68022B1B
:1017340007D1414B1B6803F00073002B09D101232F
:1017440073E03D4B1B6803F00203002B01D101231E
:101754006BE0394B5B6823F003027B685B683649B6
:1017640013434B60FFF746FAF8600AE0FFF742FACA
:101774000246FB68D31A41F28832934201D903230B
:1017840053E02D4B5B6803F00C027B685B689B00A5
:101794009A42EBD1274B1B6803F007033A689A423D
:1017A40010D2244B1B6823F0070222493B681343E1
:1017B4000B60204B1B6803F007033A689A4201D080
:1017C400012332E07B681B6803F00403002B08D07C
:1017D400194B5B6823F4E0627B68DB6816491343AA
:1017E4004B607B681B6803F00803002B09D0124B85
:1017F4005B6823F460527B681B69DB000E4913436A
:101804004B6000F021F802460B4B5B681B0903F0A8
:101814000F030A49CB5C22FA03F3094A1360094B0C
:101824001B681846FFF7A4F9002318461037BD4675
:1018340080BD00BF0020024000100240902B000831
:10184400000000200400002080B487B000AF002313
:10185400FB600023BB6000237B6100237B600023CB
:101864003B611E4B5B68FB60FB6803F00C03042BBD
:1018740002D0082B03D027E0194B3B6127E0FB681B
:101884009B0C03F00F03174AD35C7B60FB6803F4E3
:101894008033002B10D0114B5B685B0C03F0010309
:1018A400114AD35CBB607B680D4A03FB02F2BB6840
:1018B400B2FBF3F37B6104E07B680C4A02FB03F3A5
:1018C4007B617B693B6102E0054B3B6100BF3B6987
:1018D40018461C37BD4680BC704700BF001002404C
:1018E40000127A00A02B0008B02B000800093D006C
:1018F40080B485B000AF78600A4B1B680A4AA2FB2B
:1019040003235B0A7A6802FB03F3FB6000BFFB68F6
:101914005A1EFA60002BF9D100BF00BF1437BD4630
:1019240080BC704700000020D34D621080B582B0A7
:1019340000AF78607B68002B01D1012376E07B68DF
:101944005B6A002B08D17B685B68B3F5827F09D0A2
:101954007B680022DA6105E07B6800221A617B68FB
:1019640000225A617B6800229A627B6893F85130A6
:10197400DBB2002B06D17B68002283F85020786804
:10198400FEF73EFD7B68022283F851207B681B68CA
:101994001A687B681B6822F040021A607B685B68E7
:1019A40003F482727B689B6803F404431A437B68E4
:1019B400DB6803F400631A437B681B6903F00203CA
:1019C4001A437B685B6903F001031A437B689B69D4
:1019D40003F400731A437B68DB6903F038031A438A
:1019E4007B681B6A03F0800342EA03017B689B6AFD
:1019F40003F400527B681B680A431A607B689B6986
:101A04001A0C7B681B6802F004025A607B681B682E
:101A1400DA697B681B6822F40062DA617B68002261
:101A24005A657B68012283F8512000231846083741
:101A3400BD4680BD80B588B000AFF860B9603B603A
:101A44001346FB80FFF7D6F8F861FB887B83FB68BD
:101A540093F85130DBB2012B01D002232AE1BB6899
:101A6400002B02D0FB88002B01D1012322E1FB686B
:101A740093F85030012B01D102231BE1FB680122B2
:101A840083F85020FB68032283F85120FB6800226E
:101A94005A65FB68BA681A63FB68FA889A86FB6819
:101AA400FA88DA86FB6800229A63FB6800229A8728
:101AB400FB680022DA87FB6800225A64FB68002274
:101AC4001A64FB689B68B3F5004F0FD1FB681B6871
:101AD4001A68FB681B6822F040021A60FB681B68E6
:101AE4001A68FB681B6842F480421A60FB681B6832
:101AF4001B6803F04003402B07D0FB681B681A687F
:101B0400FB681B6842F040021A60FB68DB68B3F5AF
:101B1400006F52D1FB685B68002B02D07B8B012BDA
:101B240045D1FB681B6B1A88FB681B68DA60FB688D
:101B34001B6B9A1CFB681A63FB68DB8E9BB2013B30
:101B44009AB2FB68DA8632E0FB681B689B6803F094
:101B54000203022B12D1FB681B6B1A88FB681B68FB
:101B6400DA60FB681B6B9A1CFB681A63FB68DB8EEC
:101B74009BB2013B9AB2FB68DA8618E0FFF73AF8A9
:101B84000246FB69D31A3A689A4203D83B68B3F118
:101B9400FF3F02D13B68002B09D1FB68012283F887
:101BA4005120FB68002283F85020032382E0FB6865
:101BB400DB8E9BB2002BC7D153E0FB685B68002B24
:101BC40002D07B8B012B47D1FB681A6BFB681B6827
:101BD4000C3312781A70FB681B6B5A1CFB681A636F
:101BE400FB68DB8E9BB2013B9AB2FB68DA8633E07A
:101BF400FB681B689B6803F00203022B13D1FB688C
:101C04001A6BFB681B680C3312781A70FB681B6B29
:101C14005A1CFB681A63FB68DB8E9BB2013B9AB2C9
:101C2400FB68DA8618E0FEF7E5FF0246FB69D31A83
:101C34003A689A4203D83B68B3F1FF3F02D13B684C
:101C4400002B09D1FB68012283F85120FB68002294
:101C540083F8502003232DE0FB68DB8E9BB2002B1E
:101C6400C6D1FA693968F86800F0B0F80346002B69
:101C740002D0FB6820225A65FB689B68002B0AD1BE
:101C840000237B61FB681B68DB687B61FB681B6866
:101C94009B687B617B69FB68012283F85120FB68A8
:101CA400002283F85020FB685B6D002B01D00123D8
:101CB40000E0002318462037BD4680BD80B588B0BB
:101CC40000AFF860B9603B601346FB71FEF792FF0A
:101CD4000246BB6A9B1A3A681344FB61FEF78AFF0B
:101CE400B861394B1B685B011B0DFA6902FB03F3F6
:101CF4007B6154E03B68B3F1FF3F50D0FEF77AFFBD
:101D04000246BB69D31AFA699A4202D9FB69002BCD
:101D14003DD1FB681B685A68FB681B6822F0E0022F
:101D24005A60FB685B68B3F5827F11D1FB689B68DE
:101D3400B3F5004F04D0FB689B68B3F5806F07D1FF
:101D4400FB681B681A68FB681B6822F040021A6073
:101D5400FB689B6AB3F5005F0FD1FB681B681A68C8
:101D6400FB681B6822F400521A60FB681B681A683F
:101D7400FB681B6842F400521A60FB68012283F876
:101D84005120FB68002283F85020032317E07B696D
:101D9400002B01D10023FB617B69013B7B61FB6864
:101DA4001B689A68BB681340BA689A420CBF012347
:101DB4000023DBB21A46FB799A429BD100231846D2
:101DC4002037BD4680BD00BF0000002080B586B02E
:101DD40002AFF860B9607A607B680093BB68012247
:101DE4000221F868FFF76AFF0346002B07D0FB685F
:101DF4005B6D43F02002FB685A65032313E07B68A4
:101E04000093BB6800228021F868FFF757FF034660
:101E1400002B07D0FB685B6D43F02002FB685A651A
:101E2400032300E0002318461037BD4680BD034657
:101E34000244934200D1704703F8011BF9E7000004
:101E440070B500260C4D0D4C641BA410A64209D19C
:101E540000F01AF800260A4D0A4C641BA410A6428E
:101E640005D170BD55F8043B98470136EEE755F8A7
:101E7400043B98470136F2E7B42B0008B42B000862
:101E8400B42B0008B82B0008F8B500BFF8BC08BC98
:101E94009E467047F8B500BFF8BC08BC9E46704724
:101EA40048656C6C6F2C20576F726C6421000000C5
:101EB400544654204C43442044656D6F0000000098
:101EC40053544D333246313033202B20494C493959
:101ED400333431000000000000000000002F000037
:101EE40000000700070000147F147F1400242A7FD9
:101EF4002A12006264081323003649552250000058
:101F04000503000000001C224100000041221C00C7
:101F14000014083E08140008083E0808000000A049
:101F24006000000808080808000060600000002045
:101F340010080402003E5149453E0000427F400023
:101F4400004261514946002141454B3100181412A9
:101F54007F10002745454539003C4A494930000176
:101F64007109050300364949493600064949291EC5
:101F74000000363600000000563600000008142227
:101F84004100001414141414000041221408000227
:101F94000151090600324959513E007C1211127C4C
:101FA400007F49494936003E41414122007F414179
:101FB400221C007F49494941007F09090901003E6B
:101FC4004149497A007F0808087F0000417F4100A9
:101FD400002040413F01007F08142241007F40401F
:101FE4004040007F020C027F007F0408107F003E07
:101FF4004141413E007F09090906003E4151215EED
:10200400007F091929460046494949310001017FE9
:102014000101003F4040403F001F2040201F003F7F
:102024004038403F00631408146300070870080731
:1020340000615149454300007F41410000552A5544
:102044002A55000041417F000004020102040040BF
:1020540040404040000001020400002054545478E1
:10206400007F484444380038444444200038444401
:10207400487F00385454541800087E09010200189F
:10208400A4A4A47C007F080404780000447D4000DC
:10209400004080847D00007F102844000000417FC0
:1020A4004000007C04180478007C0804047800389C
:1020B4004444443800FC242424180018242418FC24
:1020C400007C0804040800485454542000043F448D
:1020D4004020003C4040207C001C2040201C003C50
:1020E4004030403C004428102844001CA0A0A07CA0
:1020F400004464544C4414141414141400000000D8
:1021040000000000000000000000000000000000CB
:1021140006080000D81E00080000000000000000AF
:10212400000000000000FC000000000002000000AD
:10213400000C020C020000000000000090D0BCD093
:10214400BC900003000300001824FE448C0003022A
:10215400070201001824D8B04C80000300010201DA
:10216400C038E438E000010202010202080600005F
:102174000000000000000000000000F8040200005D
:1021840000010204000204F800000004020100003F
:102194009060F86090000000010000002020FC2006
:1021A40020000000010000000000000000000806FC
:1021B400000000002020202020000000000000007B
:1021C4000000000000000002000000000080601C0D
:1021D4000200040300000000F8040404F8000102F3
:1021E400020201000008FC000000000203020000DB
:1021F4001884442418000302020202000804242460
:10220400D80001020202010040B088FC80000000F6
:10221400000302003C242424C40001020202010041
:10222400F824242CC0000102020201000C04E41C66
:102234000400000003000000D8242424D800010274
:102244000202010038444444F80000030202010081
:102254000000100000000000020000000000200048
:102264000000000006000000002050880402000066
:102274000000010290909090900000000000000087
:102284000002048850200002010000001804C42445
:102294001800000002000000F804E494F8000102B1
:1022A4000202020000E09CF080000203000003022E
:1022B40004FC2424D800020302020100F8040404EC
:1022C4000C0001020202010004FC0404F8000203F1
:1022D4000202010004FC24740C0002030202030045
:1022E40004FC24740C00020302000000F0080444FF
:1022F400CC4000010202010004FC2020FC04020383
:10230400000003020404FC040400020203020200AD
:10231400000404FC040406040403000004FC24D0A8
:102324000C0402030200030204FC04000000020384
:1023340002020203FC3CC03CFC0003000300030057
:1023440004FC30C4FC04020302000300F804040487
:10235400F80001020202010004FC24241800020314
:1023640002000000F8848404F8000102020705005A
:1023740004FC246498000203020003021824244489
:102384008C000302020201000C04FC040C00000295
:102394000302000004FC0000FC040001020201002E
:1023A400047C80E01C040000030000001CE03CE00E
:1023B4001C00000300030000049C609C0400020352
:1023C40000030200041CE01C0400000203020000DD
:1023D4000C84641C04000203020203000000FE02D9
:1023E4000200000007040400000E30C000000000DA
:1023F40000010200000202FE0000000404070000C5
:1024040000040204000000000000000000000000BE
:102414000000080808080808000002000000000086
:10242400000000000040A0A0C0000001020203025E
:1024340004FC2020C00000030202010000C0202090
:10244400600000010202020000C02024FC00000120
:102454000202030200C0A0A0C000000102020200A8
:102464000020F82424040002030202000040A0A07B
:10247400602000070A0A0A0404FC2020C0000203AA
:10248400020003020020E400000000020302000036
:10249400000020E4000008080807000004FC80E0B5
:1024A40020200203020003020404FC0000000202D4
:1024B40003020200E020E020C00003000300030048
:1024C40020E02020C00002030200030200C02020FC
:1024D400C00000010202010020E02020C000080F1B
:1024E4000A02010000C02020E0000001020A0F08D7
:1024F40020E0402020000203020000000060A0A0B1
:1025040020000002020203000020F8200000000066
:102514000102020020E00020E000000102020302A8
:1025240020E0208060200000030100006080E08043
:1025340060000003000300002060806020000203AC
:102544000003020020E0208060200808070100004A
:102554000020A0602000000203020200000020DE30
:102564000200000000070400000000FF000000005B
:10257400000F00000002DE2000000004070000003D
:10258400020102040402000000000000060C000026
:102594001C210008000000000000000000000000F2
:1025A40000000000000000F80000000000000033FC
:1025B4003000000000100C06100C060000000000A3
:1025C4000000000040C07840C0784000043F04048C
:1025D4003F040400007088FC08300000001820FF4D
:1025E400211E0000F008F000E018000000211C0388
:1025F4001E211E0000F00888700000001E21232404
:102604001927211010160E00000000000000000021
:1026140000000000000000E01804020000000007B1
:102624001820400000020418E000000000402018B8
:1026340007000000404080F0804040000202010F8B
:1026440001020200000000F0000000000101011F6F
:1026540001010100000000000000000080B07000D3
:102664000000000000000000000000000001010163
:1026740001010101000000000000000000303000F2
:1026840000000000000000008060180400601806CC
:102694000100000000E010080810E000000F102006
:1026A40020100F00001010F8000000000020203F50
:1026B40020200000007008080888700000302824DA
:1026C400222130000030088888483000001820207B
:1026D40020110E000000C02010F8000000070424A0
:1026E400243F240000F808888808080000192120E5
:1026F40020110E0000E0108888180000000F11203F
:1027040020110E0000380808C83808000000003FF7
:10271400000000000070880808887000001C222156
:1027240021221C0000E010080810E0000000312203
:1027340022110F00000000C0C000000000000030A3
:1027440030000000000000800000000000008060F5
:102754000000000000008040201008000001020476
:10276400081020004040404040404000040404045D
:102774000404040000081020408000000020100819
:1027840004020100007048080808F000000000304E
:1027940036010000C030C828E810E00007182724DC
:1027A40023140B000000C038E0000000203C23028A
:1027B4000227382008F8888888700000203F2020ED
:1027C40020110E00C030080808083800071820201F
:1027D4002010080008F808080810E000203F202016
:1027E40020100F0008F88888E8081000203F2020F7
:1027F4002320180008F88888E8081000203F2000EB
:1028040003000000C0300808083800000718202022
:10281400221E020008F808000008F808203F2101E1
:1028240001213F20000808F8080800000020203F8C
:102834002020000000000808F8080800C0808080FC
:102844007F00000008F888C028180800203F2001F5
:102854002638200008F8080000000000203F20204F
:102864002020300008F8F800F8F80800203F003F66
:10287400003F200008F830C00008F808203F20007E
:1028840007183F00E01008080810E0000F1020208F
:1028940020100F0008F808080808F000203F210164
:1028A40001010000E01008080810E0000F182424BB
:1028B40038504F0008F8888888887000203F20002E
:1028C400030C3020007088080808380000382021E4
:1028D40021221C00180808F8080818000000203FEE
:1028E4002000000008F808000008F808001F202055
:1028F40020201F000878880000C838080000073826
:102904000E010000F80800F80008F800033C070076
:10291400073C0300081868808068180820302C03DE
:10292400032C30200838C800C83808000000203FB5
:102934002000000010080808C838080020382621A4
:1029440020201800000000FE020202000000007FA8
:1029540040404000000C30C00000000000000001B6
:102964000638C00000020202FE00000000404040A1
:102974007F000000000004020202040000000000C6
:102984000000000000000000000000008080808043
:10299400808080800002020400000000000000002B
:1029A40000000000000080808080000000192422C4
:1029B40022223F2008F8008080000000003F112000
:1029C40020110E000000008080800000000E112005
:1029D40020201100000000808088F800000E1120E3
:1029E40020103F200000808080800000001F2222F1
:1029F40022221300008080F0888888180020203F5D
:102A0400202000000000808080808000006B94946F
:102A14009493600008F8008080800000203F21002B
:102A240000203F2000809898000000000020203FF4
:102A340020200000000000809898000000C08080E2
:102A4400807F000008F8000080808000203F24027E
:102A54002D302000000808F8000000000020203F6E
:102A6400202000008080808080808000203F200023
:102A74003F20003F8080008080800000203F2100B4
:102A840000203F200000808080800000001F202064
:102A940020201F00808000808000000080FFA12093
:102AA40020110E000000008080808000000E1120A4
:102AB40020A0FF80808080008080800020203F2133
:102AC40020000100000080808080800000332424E6
:102AD40024241900008080E0808000000000001F92
:102AE400202000008080000000808000001F202043
:102AF40020103F20808080000080808000010E3004
:102B04000806010080800080008080800F300C0364
:102B14000C300F0000808000808080000020312E67
:102B24000E312000808080000080808080818E7043
:102B34001806010000808080808080000021302CF5
:102B44002221300000000000807C0202000000000E
:102B5400003F404000000000FF00000000000000B3
:102B6400FF0000000002027C800000000040403FA3
:102B7400000000000006010102020404000000003D
:102B84000000000008100000982500080000000064
:102B940000000000010203040607080902030405FB
:102BA400060708090A0B0C0D0E0F10100102000095
:042BB400090200080A
:042BB800E50100082B
:0C2BBC0000127A00100000000100000070
:0400000508000AFDE8
:00000001FF
