:020000040800F2
:1000000000000120050E0008350600083D06000826
:10001000450600084D0600085506000800000000CF
:100020000000000000000000000000005D06000865
:100030006906000800000000750600088106000837
:100040004D0E00084D0E00084D0E00084D0E000824
:100050004D0E00084D0E00084D0E00084D0E000814
:100060004D0E00084D0E00084D0E00084D0E000804
:100070004D0E00088D0600084D0E00084D0E0008BC
:100080004D0E00084D0E00084D0E00084D0E0008E4
:100090004D0E00084D0E00084D0E00084D0E0008D4
:1000A0004D0E00084D0E00084D0E00084D0E0008C4
:1000B0004D0E00084D0E00084D0E00084D0E0008B4
:1000C0004D0E00084D0E00084D0E0008A106000858
:1000D0004D0E00084D0E00084D0E00084D0E000894
:1000E0004D0E00084D0E00084D0E00084D0E000884
:1000F0004D0E00084D0E00084D0E00084D0E000874
:100100004D0E00084D0E00084D0E00084D0E000863
:100110004D0E00084D0E00084D0E00084D0E000853
:100120004D0E00084D0E00084D0E00084D0E000843
:1001300000000000000000000000000000000000BF
:1001400000000000000000000000000000000000AF
:10015000000000000000000000000000000000009F
:10016000000000000000000000000000000000008F
:10017000000000000000000000000000000000007F
:10018000000000000000000000000000000000006F
:10019000000000000000000000000000000000005F
:1001A000000000000000000000000000000000004F
:1001B000000000000000000000000000000000003F
:1001C000000000000000000000000000000000002F
:1001D000000000000000000000000000000000001F
:0401E0005FF8E0F1F3
:1001E40010B5054C237833B9044B13B10448AFF36D
:1001F40000800123237010BD0C00002000000000CB
:10020400082F000808B5034B1BB103490348AFF39B
:10021400008008BD0000000010000020082F000826
:1002240080B582B000AF0C4B5B690B4A43F001030D
:100234005361094B5B6903F001037B607B68002217
:1002440000210D2000F05FFF0D2000F078FF00BFBB
:100254000837BD4680BD00BF0010024080B586B09F
:1002640000AF07F1080300221A605A609A60DA604E
:10027400114B9B69104A43F0040393610E4B9B6935
:1002840003F004037B607B6800221C210B4801F00F
:100294004DFD1C23BB600123FB6000233B61022353
:1002A4007B6107F108031946044801F0ABFB00BF6A
:1002B4001837BD4680BD00BF001002400008014051
:1002C40090B58BB004AF00F0C1FD00F085F8FFF7E6
:1002D400C5FFFFF7A5FF00F0C7F800F0B5FA01204D
:1002E40000F03AFB002000F0DBFB00F007FE786131
:1002F40000237B82344A3B1D92E8030083E8030019
:1003040000233B825CE03B8A4FF4165202FB03F36A
:100314002E4A1344002202924FF6FF720192009378
:10032400F0234FF4A0720021002000F0D1FB7B8A5F
:1003340001337B8200F0E2FD02467B69D31AC72BAE
:1003440030D97B8A4FF47A7202FB03F31C4600F027
:10035400D5FD02467B69D31AB4FBF3F3FB81FB8919
:10036400092B09D9FB891A4AA2FB0323DB089BB298
:10037400DBB23033DBB200E020237B72FA89144B0A
:10038400A3FB0213D9080B469B000B445B00D31A52
:100394009BB2DBB23033DBB2BB7200237B8200F052
:1003A400ADFD78613A1D002301934FF6E07300938D
:1003B400084BE421022000F0D1FC3B8A01333B824C
:1003C4003B8A312B9FD99BE7202F0008A4330008D8
:1003D400CDCCCCCC9C33000880B590B000AF07F1F5
:1003E400180328220021184602F05FFD3B1D00225D
:1003F4001A605A609A60DA601A610223BB610123B1
:10040400BB621023FB6202237B630023BB634FF4B4
:100414006013FB6307F11803184601F09FFC0346C1
:10042400002B01D000F019F80F237B600223BB607E
:100434000023FB604FF480633B6100237B613B1D21
:100444000221184601F00CFF0346002B01D000F0F6
:1004540004F800BF4037BD4680BD80B400AF72B61B
:1004640000BF00BFFDE7000080B500AF174B184A7E
:100474001A60164B4FF482725A60144B00229A6031
:10048400124B0022DA60114B00221A610F4B00223A
:100494005A610E4B4FF400729A610C4B0022DA61E0
:1004A4000A4B00221A62094B00225A62074B0022AF
:1004B4009A62064B0A22DA62044802F02DF80346D7
:1004C400002B01D0FFF7C9FF00BF80BD280000202A
:1004D4000030014080B588B000AF786007F11003A8
:1004E40000221A605A609A60DA607B681B68324A9C
:1004F40093425DD1314B9B69304A43F480539361FD
:100504002E4B9B6903F48053FB60FB682B4B9B6968
:100514002A4A43F004039361284B9B6903F00403C4
:10052400BB60BB68A0233B6102237B610323FB61A7
:1005340007F110031946224801F064FA40233B6195
:1005440000237B610023BB6107F1100319461C489B
:1005540001F058FA1B4B1C4A1A601A4B10225A60BD
:10056400184B00229A60174B8022DA60154B002248
:100574001A61144B00225A61124B00229A61114BEA
:100584000022DA610F4800F0F5FD0346002B01D08C
:10059400FFF763FF7B680B4A9A640A4A7B685362DD
:1005A40000220021232000F0AEFD232000F0C7FD2F
:1005B40000BF2037BD4680BD00300140001002401E
:1005C40000080140800000203000024080B485B063
:1005D40000AF154B9B69144A43F001039361124B1E
:1005E4009B6903F00103BB60BB680F4BDB690E4AD8
:1005F40043F08053D3610C4BDB6903F080537B6081
:100604007B680A4B5B68FB60FB6823F0E063FB607C
:10061400FB6843F00073FB60044AFB68536000BF4F
:100624001437BD4680BC70470010024000000140F2
:1006340080B400AF00BFFDE780B400AF00BFFDE7AA
:1006440080B400AF00BFFDE780B400AF00BFFDE79A
:1006540080B400AF00BFFDE780B400AF00BFBD466B
:1006640080BC704780B400AF00BFBD4680BC7047FB
:1006740080B400AF00BFBD4680BC704780B500AFFA
:1006840000F02AFC00BF80BD80B500AF024800F036
:100694004FFF00BF80BD00BF8000002080B500AFC9
:1006A400024802F0B3F900BF80BD00BF280000205B
:1006B40080B400AF00BFBD4680BC704780B582B037
:1006C40000AF0346FB7100221021074801F02EFB06
:1006D400F91D4FF0FF330122044801F0A1FF00BFD0
:1006E4000837BD4680BD00BF000801402800002037
:1006F40080B582B000AF0346FB7101221021074888
:1007040001F014FBF91D4FF0FF330122044801F0FE
:1007140087FF00BF0837BD4680BD00BF0008014009
:100724002800002080B584B000AF0346FB80FB881E
:100734001B0A9BB2DBB23B73FB88DBB27B730122E7
:100744001021074801F0F2FA07F10C014FF0FF33D2
:100754000222044801F064FF00BF1037BD4680BD8B
:10076400000801402800002080B586B000AF034691
:100774003960FB803B68002B57D02E4B1B88FA88CE
:100784009A421CD0FB881B0A9BB2FB73FB88BB7389
:100794000023FB820DE0FB8A5B002749FA7BCA54E5
:1007A400FB8A5B0001332449BA7BCA54FB8A0133B8
:1007B400FB82FB8AEF2BEED91E4AFB8813800122B1
:1007C40010211E4801F0B2FA3B681D4AA2FB032324
:1007D400DB093B610BE04FF4F0721749194802F052
:1007E40063F8184B93F85130DBB2012BF9D13B6914
:1007F4005A1E3A61002BEED13A68114BA3FB021347
:10080400D9090B461B015B1A1B01D31ABB60BB68D9
:10081400002B0BD0BB689BB25B009AB24FF0FF3346
:100824000549084801F0FCFE00E000BF1837BD464A
:1008340080BD00BFC8000020CC000020000801409B
:10084400898888882800002080B500AF002208210C
:10085400404801F06BFA0A2000F05AFB01220821FB
:100864003C4801F063FA782000F052FB0120FFF7C6
:1008740025FF782000F04CFBCB20FFF71FFF392029
:10088400FFF736FF2C20FFF733FF0020FFF730FF80
:100894003420FFF72DFF0220FFF72AFFCF20FFF7B8
:1008A4000DFF0020FFF724FFC120FFF721FF3020B8
:1008B400FFF71EFFE820FFF701FF8520FFF718FF71
:1008C4000020FFF715FF7820FFF712FFEA20FFF75B
:1008D400F5FE0020FFF70CFF0020FFF709FFCB20F7
:1008E400FFF7ECFE3920FFF703FF2C20FFF700FF92
:1008F4000020FFF7FDFE3420FFF7FAFE0220FFF789
:10090400F7FEF720FFF7DAFE2020FFF7F1FEE820DC
:10091400FFF7D4FE0020FFF7EBFE0020FFF7E8FE10
:100924003A20FFF7CBFE5520FFF7E2FE002000F04F
:1009340013F81120FFF7C2FE782000F0E9FA29200D
:10094400FFF7BCFE142000F0E3FA012000F03EFAA9
:1009540000BF80BD0008014080B582B000AF0346EF
:10096400FB713620FFF7AAFEFB79032B36D801A2D0
:1009740052F823F0890900089F090008B509000806
:10098400CB0900084820FFF7B3FE164BF0221A806B
:10099400154B4FF4A0721A8020E02820FFF7A8FE20
:1009A400104B4FF4A0721A800F4BF0221A8015E0FE
:1009B4008820FFF79DFE0B4BF0221A800A4B4FF460
:1009C400A0721A800AE0E820FFF792FE054B4FF46C
:1009D400A0721A80044BF0221A8000BF00BF0837AF
:1009E400BD4680BDC4000020C600002090B585B07F
:1009F40000AF0446084611461A462346FB800346C8
:100A0400BB800B467B8013463B80FA887B8813446B
:100A14009BB2013BFB81BA883B8813449BB2013BE8
:100A2400BB812A20FFF74AFEFB881846FFF77AFEAF
:100A3400FB891846FFF776FE2B20FFF73FFEBB88A5
:100A44001846FFF76FFEBB891846FFF76BFE2C2094
:100A5400FFF734FE00BF1437BD4690BD90B583B098
:100A640000AF0446084611461A462346FB80034657
:100A7400BB800B467B8013463B803B887A88B988D1
:100A8400F888FFF7B3FF7B883A8803FB02F23B8BBD
:100A940011461846FFF768FE00BF0C37BD4690BDEF
:100AA40080B584B002AF0346FB80074B1A88074B1E
:100AB4001988FB8800930B4600210020FFF7CEFF26
:100AC40000BF0837BD4680BDC4000020C60000201A
:100AD40090B589B000AF0446084611461A4623462D
:100AE400FB800346BB800B467B8013463B803B88E0
:100AF4007A88B988F888FFF779FF012210213A48EB
:100B040001F014F9BB8EFB823B8FBB82374BFB6138
:100B140000237B834DE07B8BDB089BB27B747B8B58
:100B2400DBB203F007033B747B7C7A8802FB03F39C
:100B34003A6B1344FB6000233B8315E03B8BFA685C
:100B440013441B781A463B7C42FA03F303F0010377
:100B5400002B01D0FA8A00E0BA8AFB69991CF9617A
:100B64001A803B8B01333B833A8B7B889A42E5D3D3
:100B7400FB691E4A9B1A5B1019467A8813465B0070
:100B840013449B00994211DBFB69184A9B1A7B8131
:100B94007B891A461549164801F086FE144B93F8D2
:100BA4005130DBB2012BF9D1104BFB617B8B01334C
:100BB4007B837A8B3B889A42ADD3FB690B4A9B1AA1
:100BC4007B827B8A002B0BD07B8A1A460749084814
:100BD40001F06AFE064B93F85130DBB2012BF9D1D8
:100BE40000BF2437BD4690BD00080140AC02002080
:100BF4002800002080B58CB000AF7B600346FB81E9
:100C04000B46BB811346FB72FB7A1F2B02D9FB7A7E
:100C14007E2B03D9002387F82F3003E0FB7A203B97
:100C240087F82F307B681B7887F82C307B685B78DB
:100C340087F82B3097F82B300733002B00DA073373
:100C4400DB1087F82A307B685A6897F82F3097F8BA
:100C54002C1001FB03F397F82A1001FB03F3134450
:100C64007B6297F82C309AB297F82B309BB2B989F3
:100C7400F889FFF7BBFE01221021364801F056F82F
:100C8400002387F82E305AE0002387F82D303FE008
:100C940097F82E30DB08DBB297F82C2002FB03F325
:100CA400DAB297F82D30134487F8233097F82E30B2
:100CB40003F0070387F8223097F823307A6A134445
:100CC4001B781A4697F8223042FA03F303F0010323
:100CD400002B01D03B8F00E0BB8F3B843B8C1B0A75
:100CE4009AB297F82D305B00D2B230333B4403F80C
:100CF400202C97F82D305B0001333A8CD2B230337C
:100D04003B4403F8202C97F82D30013387F82D301D
:100D140097F82D2097F82C309A42B9D397F82C30B5
:100D24009BB25B009AB207F110014FF0FF330A48FF
:100D340001F076FC97F82E30013387F82E3097F8BF
:100D44002E2097F82B309A429ED300BF00BF303735
:100D5400BD4680BD000801402800002080B588B051
:100D640002AFBA607B600346FB810B46BB81FB8903
:100D7400FB82BB89BB8220E0BB681B780A2B08D1AD
:100D8400FB89FB827B685B781A46BB8A1344BB826F
:100D940010E0BB681A78B98AF88ABB8C01933B8C43
:100DA40000937B68FFF726FF7B681B781A46FB8A53
:100DB4001344FB82BB680133BB60BB681B78002B08
:100DC400DAD100BF00BF1837BD4680BD80B582B000
:100DD40000AF0346FB71FB79002B05D001220421EF
:100DE400064800F0A3FF04E000220421034800F0B9
:100DF4009DFF00BF0837BD4680BD00BF000801400D
:100E0400FFF756FC0B480C490C4A002302E0D45867
:100E1400C4500433C4188C42F9D3094A094C002342
:100E240001E013600432A242FBD302F047F8FFF75B
:100E340047FA7047000000200C000020D086070805
:100E44000C000020B0200020FEE7000080B500AFB9
:100E5400084B1B68074A43F010031360032000F09B
:100E640047F90F2000F008F8FFF7B0FB00231846FD
:100E740080BD00BF0020024080B582B000AF786022
:100E8400124B1A68124B1B7819464FF47A73B3FB52
:100E9400F1F3B2FBF3F3184600F05FF90346002BBD
:100EA40001D001230EE07B680F2B0AD80022796859
:100EB4004FF0FF3000F027F9064A7B6813600023E7
:100EC40000E0012318460837BD4680BD000000201D
:100ED400080000200400002080B400AF054B1B78FC
:100EE4001A46054B1B681344034A136000BFBD46F2
:100EF40080BC704708000020AC20002080B400AF04
:100F0400024B1B681846BD4680BC7047AC200020CD
:100F140080B584B000AF7860FFF7F0FFB8607B68FD
:100F2400FB60FB68B3F1FF3F05D00A4B1B781A4600
:100F3400FB681344FB6000BFFFF7E0FF0246BB6899
:100F4400D31AFA689A42F7D800BF00BF1037BD46DB
:100F540080BD00BF0800002080B485B000AF786079
:100F64007B6803F00703FB600C4BDB68BB60BA686B
:100F74004FF6FF031340BB60FB681A02BB681343C0
:100F840043F0BF6343F40033BB60044ABB68D360DF
:100F940000BF1437BD4680BC704700BF00ED00E0C1
:100FA40080B400AF044BDB681B0A03F00703184648
:100FB400BD4680BC704700BF00ED00E080B483B044
:100FC40000AF0346FB7197F90730002B0BDBFB796D
:100FD40003F01F02064997F907305B09012000FA64
:100FE40002F241F8232000BF0C37BD4680BC704795
:100FF40000E100E080B483B000AF03463960FB71C8
:1010040097F90730002B0ADB3B68DAB20C4997F9F1
:1010140007301201D2B20B4483F800230AE03B6884
:10102400DAB20849FB7903F00F03043B1201D2B290
:101034000B441A7600BF0C37BD4680BC704700BF16
:1010440000E100E000ED00E080B489B000AFF8609A
:10105400B9607A60FB6803F00703FB61FB69C3F1C5
:101064000703042B28BF0423BB61FB690433062B4D
:1010740002D9FB69033B00E000237B614FF0FF32A0
:10108400BB6902FA03F3DA43BB681A407B699A40EE
:101094004FF0FF317B6901FA03F3D9437B680B40BE
:1010A400134318462437BD4680BC704780B582B0D0
:1010B40000AF78607B68013BB3F1807F01D30123EB
:1010C4000FE00A4A7B68013B53600F214FF0FF3069
:1010D400FFF790FF054B00229A60044B07221A6029
:1010E400002318460837BD4680BD00BF10E000E06D
:1010F40080B582B000AF78607868FFF72DFF00BF3D
:101104000837BD4680BD80B586B000AF0346B960E0
:101114007A60FB7300237B61FFF742FF78617A6892
:10112400B9687869FFF790FF024697F90F301146C6
:101134001846FFF75FFF00BF1837BD4680BD80B576
:1011440082B000AF0346FB7197F907301846FFF7EA
:1011540035FF00BF0837BD4680BD80B582B000AF03
:1011640078607868FFF7A2FF034618460837BD4643
:1011740080BD000080B485B000AF78600023FB60C0
:101184007B68002B01D1012359E07B681B681A4658
:101194002D4B9A420FD87B681B681A462B4B13447D
:1011A4002B4AA2FB03231B099A007B681A647B6801
:1011B400284ADA630EE07B681B681A46264B134400
:1011C400234AA2FB03231B099A007B681A647B68E9
:1011D400224ADA637B68022283F821207B681B6839
:1011E4001B68FB60FB6823F47F5323F03003FB6030
:1011F4007B685A687B689B681A437B68DB681A4380
:101204007B681B691A437B685B691A437B689B692B
:101214001A437B68DB691343FA681343FB607B68FA
:101224001B68FA681A607B6800229A637B68012253
:1012340083F821207B68002283F8202000231846AD
:101244001437BD4680BC704707040240F8FFFDBF59
:10125400CDCCCCCC00000240F8FBFDBF0004024022
:1012640080B586B000AFF860B9607A603B60002357
:10127400FB75FB6893F82030012B01D102234BE06E
:10128400FB68012283F82020FB6893F82130DBB24D
:10129400012B3AD1FB68022283F82120FB6800224B
:1012A4009A63FB681B681A68FB681B6822F00102DA
:1012B4001A603B687A68B968F86800F075FBFB68E7
:1012C400DB6A002B08D0FB681B681A68FB681B6884
:1012D40042F00E021A600FE0FB681B681A68FB6894
:1012E4001B6822F004021A60FB681B681A68FB681A
:1012F4001B6842F00A021A60FB681B681A68FB68E4
:101304001B6842F001021A6005E0FB68002283F8C2
:1013140020200223FB75FB7D18461837BD4680BD8F
:1013240080B584B000AF78600023FB737B6893F8CA
:101334002130DBB2022B05D07B6804229A6301239F
:10134400FB73D6E07B681B681A687B681B6822F015
:101354000E021A607B681B681A687B681B6822F09F
:1013640001021A607B681B681A46644B9A4258D97A
:101374007B681B68624A93424FD07B681B68614A52
:10138400934248D07B681B685F4A934240D07B6895
:101394001B685E4A934238D07B681B685C4A934260
:1013A40030D07B681B685B4A934228D07B681B68FB
:1013B400524A934220D07B681B68574A934219D003
:1013C4007B681B68554A934212D07B681B68544A59
:1013D40093420AD07B681B68524A934202D14FF46D
:1013E40080531BE04FF4803318E04FF4807315E012
:1013F400102313E0012311E04FF080730EE04FF44B
:1014040080130BE04FF4803308E04FF4805305E081
:101414004FF4807302E0102300E00123424A53603A
:1014240057E07B681B68364A93424FD07B681B6841
:10143400344A934248D07B681B68334A934240D075
:101444007B681B68314A934238D07B681B68304AFA
:10145400934230D07B681B682E4A934228D07B6825
:101464001B68264A934220D07B681B682A4A934211
:1014740019D07B681B68294A934212D07B681B6889
:10148400274A93420AD07B681B68264A934202D1BA
:101494004FF480531BE04FF4803318E04FF4807313
:1014A40015E0102313E0012311E04FF080730EE0E8
:1014B4004FF480130BE04FF4803308E04FF4805373
:1014C40005E04FF4807302E0102300E00123174A83
:1014D40053607B68012283F821207B68002283F813
:1014E40020207B685B6B002B03D07B685B6B786888
:1014F4009847FB7B18461037BD4680BD80000240EC
:10150400080002401C000240300002404400024037
:10151400580002406C000240080402401C040240CF
:10152400300402404404024000040240000002402F
:1015340080B584B000AF78607B68DB6B1B68FB60B0
:101544007B681B681B68BB607B681B6C04229A4029
:10155400FB681340002B00F0F180BB6803F0040328
:10156400002B00F0EB807B681B681B6803F02003F2
:10157400002B07D17B681B681A687B681B6822F004
:1015840004021A607B681B681A465F4B9A4258D95A
:101594007B681B685D4A93424FD07B681B685C4A3A
:1015A400934248D07B681B685A4A934240D07B6878
:1015B4001B68594A934238D07B681B68574A934248
:1015C40030D07B681B68564A934228D07B681B68DE
:1015D4004D4A934220D07B681B68524A934219D0EB
:1015E4007B681B68504A934212D07B681B684F4A41
:1015F40093420AD07B681B684D4A934202D14FF450
:1016040080431BE04FF4802318E04FF4806315E01F
:10161400402313E0042311E04FF080630EE04FF405
:1016240080030BE04FF4802308E04FF4804305E08F
:101634004FF4806302E0402300E004233D4A5360FA
:1016440057E07B681B68314A93424FD07B681B6824
:101654002F4A934248D07B681B682E4A934240D05D
:101664007B681B682C4A934238D07B681B682B4AE2
:10167400934230D07B681B68294A934228D07B6808
:101684001B68214A934220D07B681B68254A9342F9
:1016940019D07B681B68244A934212D07B681B686C
:1016A400224A93420AD07B681B68214A934202D1A2
:1016B4004FF480431BE04FF4802318E04FF4806321
:1016C40015E0402313E0042311E04FF080630EE0A3
:1016D4004FF480030BE04FF4802308E04FF4804381
:1016E40005E04FF4806302E0402300E00423124A43
:1016F40053607B68DB6A002B00F036817B68DB6A11
:101704007868984730E100BF80000240080002403A
:101714001C000240300002404400024058000240D5
:101724006C000240080402401C04024030040240E1
:101734004404024000040240000002407B681B6C29
:1017440002229A40FB681340002B00F0DD80BB6846
:1017540003F00203002B00F0D7807B681B681B6832
:1017640003F02003002B0BD17B681B681A687B688D
:101774001B6822F00A021A607B68012283F8212088
:101784007B681B681A467B4B9A4258D97B681B6856
:10179400794A93424FD07B681B68784A934248D079
:1017A4007B681B68764A934240D07B681B68754A05
:1017B400934238D07B681B68734A934230D07B686D
:1017C4001B68724A934228D07B681B68694A93421B
:1017D40020D07B681B686E4A934219D07B681B68D3
:1017E4006C4A934212D07B681B686B4A93420AD0BE
:1017F4007B681B68694A934202D14FF400531BE093
:101804004FF4003318E04FF4007315E0202313E085
:10181400022311E04FF000730EE04FF400130BE0CD
:101824004FF4003308E04FF4005305E04FF4007325
:1018340002E0202300E00223594A536057E07B680A
:101844001B684D4A93424FD07B681B684B4A9342B6
:1018540048D07B681B684A4A934240D07B681B6827
:10186400484A934238D07B681B68474A934230D039
:101874007B681B68454A934228D07B681B683D4AB5
:10188400934220D07B681B68414A934219D07B68FD
:101894001B68404A934212D07B681B683E4A9342BD
:1018A4000AD07B681B683D4A934202D14FF400532F
:1018B4001BE04FF4003318E04FF4007315E02023CD
:1018C40013E0022311E04FF000730EE04FF4001315
:1018D4000BE04FF4003308E04FF4005305E04FF4FD
:1018E400007302E0202300E002232E4A53607B6849
:1018F400002283F820207B689B6A002B34D07B680D
:101904009B6A786898472FE07B681B6C08229A4092
:10191400FB681340002B28D0BB6803F00803002B9E
:1019240023D07B681B681A687B681B6822F00E0250
:101934001A607B681A6C7B68DB6B012101FA02F286
:101944005A607B6801229A637B68012283F8212014
:101954007B68002283F820207B681B6B002B04D05B
:101964007B681B6B7868984700BF00BF1037BD4683
:1019740080BD00BF80000240080002401C000240FD
:101984003000024044000240580002406C00024013
:10199400080402401C040240300402404404024093
:1019A400000402400000024080B485B000AFF8603B
:1019B400B9607A603B60FB681A6CFB68DB6B0121E1
:1019C40001FA02F25A60FB681B683A685A60FB68C5
:1019D4005B68102B08D1FB681B687A689A60FB6807
:1019E4001B68BA68DA6007E0FB681B68BA689A602B
:1019F400FB681B687A68DA6000BF1437BD4680BC98
:101A04007047000080B48BB000AF78603960002369
:101A14007B6200233B6279E101227B6A02FA03F3D1
:101A2400FB613B681B68FA691340BB61BA69FB69D7
:101A34009A4240F068813B685B68964A93425ED064
:101A4400944A934275D8944A934258D0924A934206
:101A54006FD8924A934252D0904A934269D8904A9E
:101A640093424CD08E4A934263D88E4A934246D0D6
:101A74008C4A93425DD8122B2AD8122B59D801A232
:101A840052F823F0031B0008DD1A0008EF1A0008BF
:101A9400311B0008371B0008371B0008371B0008E0
:101AA400371B0008371B0008371B0008371B0008CA
:101AB400371B0008371B0008371B0008371B0008BA
:101AC400371B0008371B0008E51A0008F91A00083C
:101AD400754A934213D02CE03B68DB683B6229E0F3
:101AE4003B68DB6804333B6224E03B68DB68083313
:101AF4003B621FE03B68DB680C333B621AE03B68E7
:101B04009B68002B02D104233B6213E03B689B6873
:101B1400012B05D108233B627B68FA691A6109E04D
:101B240008233B627B68FA695A6103E000233B6245
:101B340000E000BFBB69FF2B01D87B6801E07B6834
:101B440004337B61BB69FF2B02D87B6A9B0002E0F4
:101B54007B6A083B9B003B617B691A680F213B69E8
:101B640001FA03F3DB431A40396A3B6901FA03F3D0
:101B74001A437B691A603B685B6803F08053002B4F
:101B840000F0C180494B9B69484A43F001039361CB
:101B9400464B9B6903F00103BB60BB68444A7B6A04
:101BA4009B08023352F82330FB607B6A03F0030383
:101BB4009B000F2202FA03F3DB43FA681340FB6035
:101BC4007B683C4A93421FD07B683B4A934219D0BE
:101BD4007B683A4A934213D07B68394A93420DD0CA
:101BE4007B68384A934207D07B68374A934201D1D5
:101BF40005230AE0062308E0042306E0032304E0A7
:101C0400022302E0012300E000237A6A02F00302C7
:101C140092009340FA681343FB6025497B6A9B0852
:101C24000233FA6841F823203B685B6803F48013AD
:101C3400002B06D0254B9A682449BB6913438B605B
:101C440006E0224B9A68BB69DB43204913408B6052
:101C54003B685B6803F40013002B06D01B4BDA6867
:101C64001A49BB691343CB6006E0184BDA68BB69B9
:101C7400DB4316491340CB603B685B6803F40033D5
:101C8400002B25D0114B5A681049BB6913434B6094
:101C940025E000BF000032100000311000002210C7
:101CA400000021100000121000001110001002406A
:101CB4000000014000080140000C014000100140F8
:101CC4000014014000180140001C014000040140C0
:101CD400154B5A68BB69DB43134913404B603B689F
:101CE4005B6803F48033002B06D00F4B1A680E494F
:101CF400BB6913430B6006E00B4B1A68BB69DB43FB
:101D0400094913400B607B6A01337B623B681A68A4
:101D14007B6A22FA03F3002B7FF47EAE00BF00BF80
:101D24002C37BD4680BC70470004014080B483B0AA
:101D340000AF78600B467B8013467B707B78002B6A
:101D440003D07A887B681A6103E07B881A047B6875
:101D54001A6100BF0C37BD4680BC704780B586B0A1
:101D640000AF78607B68002B01D1012372E27B68AD
:101D74001B6803F00103002B00F08780924B5B6823
:101D840003F00C03042B0CD08F4B5B6803F00C03A3
:101D9400082B12D18C4B5B6803F48033B3F5803F7E
:101DA4000BD1894B1B6803F40033002B6CD07B6888
:101DB4005B68002B68D101234CE27B685B68B3F558
:101DC400803F06D1804B1B687F4A43F48033136005
:101DD4002EE07B685B68002B0CD17B4B1B687A4A36
:101DE40023F480331360784B1B68774A23F48023F1
:101DF40013601DE07B685B68B3F5A02F0CD1724BB8
:101E04001B68714A43F4802313606F4B1B686E4A4E
:101E140043F4803313600BE06B4B1B686A4A23F472
:101E240080331360684B1B68674A23F48023136074
:101E34007B685B68002B13D0FFF760F8386108E01B
:101E4400FFF75CF802463B69D31A642B01D90323DC
:101E540000E25D4B1B6803F40033002BF0D014E068
:101E6400FFF74CF8386108E0FFF748F802463B6991
:101E7400D31A642B01D90323ECE1534B1B6803F4FD
:101E84000033002BF0D100E000BF7B681B6803F037
:101E94000203002B63D04C4B5B6803F00C03002B54
:101EA4000BD0494B5B6803F00C03082B1CD1464B49
:101EB4005B6803F48033002B16D1434B1B6803F09B
:101EC4000203002B05D07B681B69012B01D0012381
:101ED400C0E13D4B1B6823F0F8027B685B69DB00C3
:101EE400394913430B603AE07B681B69002B20D00F
:101EF400364B01221A60FFF701F8386108E0FEF75B
:101F0400FDFF02463B69D31A022B01D90323A1E149
:101F14002D4B1B6803F00203002BF0D02A4B1B68E7
:101F240023F0F8027B685B69DB00274913430B60ED
:101F340015E0264B00221A60FEF7E0FF386108E046
:101F4400FEF7DCFF02463B69D31A022B01D90323B7
:101F540080E11D4B1B6803F00203002BF0D17B686A
:101F64001B6803F00803002B3AD07B689B69002BA5
:101F740019D0174B01221A60FEF7C0FF386108E040
:101F8400FEF7BCFF02463B69D31A022B01D9032397
:101F940060E10D4B5B6A03F00203002BF0D00120DB
:101FA40000F09CFA1CE00A4B00221A60FEF7A6FF20
:101FB40038610FE0FEF7A2FF02463B69D31A022BF9
:101FC40008D9032346E100BF00100240000042424A
:101FD40080044242924B5B6A03F00203002BE9D176
:101FE4007B681B6803F00403002B00F0A680002329
:101FF400FB758B4BDB6903F08053002B0DD1884BB1
:10200400DB69874A43F08053D361854BDB6903F076
:102014008053BB60BB680123FB75824B1B6803F4D0
:102024008073002B18D17F4B1B687E4A43F4807366
:102034001360FEF763FF386108E0FEF75FFF0246B6
:102044003B69D31A642B01D9032303E1754B1B6845
:1020540003F48073002BF0D07B68DB68012B06D17E
:102064006F4B1B6A6E4A43F0010313622DE07B68D9
:10207400DB68002B0CD16A4B1B6A694A23F001030D
:102084001362674B1B6A664A23F0040313621CE065
:102094007B68DB68052B0CD1614B1B6A604A43F0FB
:1020A400040313625E4B1B6A5D4A43F0010313622F
:1020B4000BE05B4B1B6A5A4A23F001031362584B33
:1020C4001B6A574A23F0040313627B68DB68002B06
:1020D40015D0FEF713FF38610AE0FEF70FFF024642
:1020E4003B69D31A41F28832934201D90323B1E008
:1020F4004B4B1B6A03F00203002BEED014E0FEF7F7
:10210400FDFE38610AE0FEF7F9FE02463B69D31A88
:1021140041F28832934201D903239BE0404B1B6A6E
:1021240003F00203002BEED1FB7D012B05D13C4BC8
:10213400DB693B4A23F08053D3617B68DB69002B66
:1021440000F08780364B5B6803F00C03082B61D0EA
:102154007B68DB69022B46D1334B00221A60FEF701
:10216400CDFE386108E0FEF7C9FE02463B69D31A8A
:10217400022B01D903236DE0294B1B6803F0007384
:10218400002BF0D17B681B6AB3F5803F08D1244B48
:102194005B6823F400327B689B68214913434B60DE
:1021A4001F4B5B6823F474127B68196A7B685B6A53
:1021B4000B431B4913434B601B4B01221A60FEF770
:1021C4009DFE386108E0FEF799FE02463B69D31A8A
:1021D400022B01D903233DE0114B1B6803F000736C
:1021E400002BF0D035E0104B00221A60FEF786FE7B
:1021F400386108E0FEF782FE02463B69D31A022BDF
:1022040001D9032326E0064B1B6803F00073002B5F
:10221400F0D11EE07B68DB69012B07D1012319E0B3
:102224000010024000700040600042420B4B5B68AB
:10223400FB60FB6803F480327B681B6A9A4206D118
:10224400FB6803F470127B685B6A9A4201D0012335
:1022540000E0002318461837BD4680BD0010024038
:1022640080B584B000AF786039607B68002B01D101
:102274000123D0E06A4B1B6803F007033A689A42D3
:1022840010D9674B1B6823F0070265493B68134369
:102294000B60634B1B6803F007033A689A4201D052
:1022A4000123B8E07B681B6803F00203002B20D0F5
:1022B4007B681B6803F00403002B05D0594B5B6853
:1022C400584A43F4E06353607B681B6803F00803D7
:1022D400002B05D0534B5B68524A43F46053536060
:1022E400504B5B6823F0F0027B689B684D491343B5
:1022F4004B607B681B6803F00103002B40D07B68B4
:102304005B68012B07D1474B1B6803F40033002B98
:1023140015D101237FE07B685B68022B07D1414B19
:102324001B6803F00073002B09D1012373E03D4BBC
:102334001B6803F00203002B01D101236BE0394B2E
:102344005B6823F003027B685B68364913434B6088
:10235400FEF7D4FDF8600AE0FEF7D0FD0246FB6804
:10236400D31A41F28832934201D9032353E02D4B0F
:102374005B6803F00C027B685B689B009A42EBD1BC
:10238400274B1B6803F007033A689A4210D2244B88
:102394001B6823F0070222493B6813430B60204B60
:1023A4001B6803F007033A689A4201D0012332E024
:1023B4007B681B6803F00403002B08D0194B5B688F
:1023C40023F4E0627B68DB68164913434B607B6847
:1023D4001B6803F00803002B09D0124B5B6823F43D
:1023E40060527B681B69DB000E4913434B6000F0AD
:1023F40021F802460B4B5B681B0903F00F030A49E3
:10240400CB5C22FA03F3094A1360094B1B68184694
:10241400FEF732FD002318461037BD4680BD00BFCD
:102424000020024000100240A4860708000000209B
:102434000400002080B487B000AF0023FB600023B9
:10244400BB6000237B6100237B6000233B611E4B48
:102454005B68FB60FB6803F00C03042B02D0082BC1
:1024640003D027E0194B3B6127E0FB689B0C03F08A
:102474000F03174AD35C7B60FB6803F48033002BA3
:1024840010D0114B5B685B0C03F00103114AD35C61
:10249400BB607B680D4A03FB02F2BB68B2FBF3F33B
:1024A4007B6104E07B680C4A02FB03F37B617B697C
:1024B4003B6102E0054B3B6100BF3B6918461C379A
:1024C400BD4680BC704700BF0010024000127A0075
:1024D400B4860708C486070800093D0080B485B0A7
:1024E40000AF78600A4B1B680A4AA2FB03235B0A0D
:1024F4007A6802FB03F3FB6000BFFB685A1EFA60B4
:10250400002BF9D100BF00BF1437BD4680BC704713
:1025140000000020D34D621080B582B000AF786017
:102524007B68002B01D1012376E07B685B6A002B7A
:1025340008D17B685B68B3F5827F09D07B68002291
:10254400DA6105E07B6800221A617B6800225A6127
:102554007B6800229A627B6893F85130DBB2002BCF
:1025640006D17B68002283F850207868FDF7B2FF1B
:102574007B68022283F851207B681B681A687B6899
:102584001B6822F040021A607B685B6803F4827265
:102594007B689B6803F404431A437B68DB6803F499
:1025A40000631A437B681B6903F002031A437B68C8
:1025B4005B6903F001031A437B689B6903F40073AE
:1025C4001A437B68DB6903F038031A437B681B6A90
:1025D40003F0800342EA03017B689B6A03F4005220
:1025E4007B681B680A431A607B689B691A0C7B68CA
:1025F4001B6802F004025A607B681B68DA697B6816
:102604001B6822F40062DA617B6800225A657B68E9
:10261400012283F85120002318460837BD4680BDA7
:1026240080B588B000AFF860B9603B601346FB80AA
:10263400FEF764FCF861FB887B83FB6893F85130F8
:10264400DBB2012B01D002232AE1BB68002B02D0AC
:10265400FB88002B01D1012322E1FB6893F8503061
:10266400012B01D102231BE1FB68012283F85020D6
:10267400FB68032283F85120FB6800225A65FB683B
:10268400BA681A63FB68FA889A86FB68FA88DA865D
:10269400FB6800229A63FB6800229A87FB68002289
:1026A400DA87FB6800225A64FB6800221A64FB681C
:1026B4009B68B3F5004F0FD1FB681B681A68FB6871
:1026C4001B6822F040021A60FB681B681A68FB68EA
:1026D4001B6842F480421A60FB681B681B6803F0A5
:1026E4004003402B07D0FB681B681A68FB681B6813
:1026F40042F040021A60FB68DB68B3F5006F52D108
:10270400FB685B68002B02D07B8B012B45D1FB68F7
:102714001B6B1A88FB681B68DA60FB681B6B9A1CCE
:10272400FB681A63FB68DB8E9BB2013B9AB2FB68C1
:10273400DA8632E0FB681B689B6803F00203022B15
:1027440012D1FB681B6B1A88FB681B68DA60FB6894
:102754001B6B9A1CFB681A63FB68DB8E9BB2013B04
:102764009AB2FB68DA8618E0FEF7C8FB0246FB69FA
:10277400D31A3A689A4203D83B68B3F1FF3F02D1B7
:102784003B68002B09D1FB68012283F85120FB68C8
:10279400002283F85020032382E0FB68DB8E9BB287
:1027A400002BC7D153E0FB685B68002B02D07B8B06
:1027B400012B47D1FB681A6BFB681B680C3312783A
:1027C4001A70FB681B6B5A1CFB681A63FB68DB8E70
:1027D4009BB2013B9AB2FB68DA8633E0FB681B6864
:1027E4009B6803F00203022B13D1FB681A6BFB688E
:1027F4001B680C3312781A70FB681B6B5A1CFB683D
:102804001A63FB68DB8E9BB2013B9AB2FB68DA86E3
:1028140018E0FEF773FB0246FB69D31A3A689A4242
:1028240003D83B68B3F1FF3F02D13B68002B09D1C9
:10283400FB68012283F85120FB68002283F85020B2
:1028440003232DE0FB68DB8E9BB2002BC6D1FA6913
:102854003968F86800F0F8FA0346002B02D0FB68E8
:1028640020225A65FB689B68002B0AD100237B61F8
:10287400FB681B68DB687B61FB681B689B687B618A
:102884007B69FB68012283F85120FB68002283F8EE
:102894005020FB685B6D002B01D0012300E0002376
:1028A40018462037BD4680BD80B584B000AFF860BF
:1028B400B9601346FB80FB6893F85130DBB2012BFF
:1028C40001D0022397E0BB68002B02D0FB88002BC9
:1028D40001D101238FE0FB6893F85030012B01D123
:1028E400022388E0FB68012283F85020FB6803225E
:1028F40083F85120FB6800225A65FB68BA681A63A2
:10290400FB68FA889A86FB68FA88DA86FB680022F4
:102914009A63FB6800225A64FB6800221A64FB680D
:1029240000229A87FB680022DA87FB689B68B3F56C
:10293400004F0FD1FB681B681A68FB681B6822F004
:1029440040021A60FB681B681A68FB681B6842F443
:1029540080421A60FB689B6C294ADA62FB689B6CB4
:10296400284A9A62FB689B6C274A1A63FB689B6C33
:1029740000225A63FB68986CFB681B6B1946FB6862
:102984001B680C331A46FB68DB8E9BB2FEF768FCAF
:102994000346002B0BD0FB685B6D43F01002FB6811
:1029A4005A65FB68002283F85020012323E0FB686A
:1029B4001B681B6803F04003402B07D0FB681B68AF
:1029C4001A68FB681B6842F040021A60FB68002228
:1029D40083F85020FB681B685A68FB681B6842F048
:1029E40020025A60FB681B685A68FB681B6842F047
:1029F40002025A60002318461037BD4680BD00BF4E
:102A0400B92C0008132C0008D52C000880B588B018
:102A140000AF78607B681B685B68FB617B681B6840
:102A24009B68BB61BB699B0903F00103002B0FD1B9
:102A3400BB6903F00103002B0AD0FB699B0903F077
:102A44000103002B04D07B681B6C78689847BEE0B8
:102A5400BB695B0803F00103002B0AD0FB69DB09A7
:102A640003F00103002B04D07B685B6C7868984703
:102A7400ADE0BB695B0903F00103002B06D1BB6920
:102A84009B0903F00103002B00F0A180FB695B09A3
:102A940003F00103002B00F09A80BB699B0903F04B
:102AA4000103002B23D07B6893F85130DBB2032B56
:102AB40011D07B685B6D43F004027B685A65002388
:102AC4007B617B681B68DB687B617B681B689B6838
:102AD4007B617B690BE000233B617B681B68DB68DF
:102AE4003B617B681B689B683B613B696FE0BB692A
:102AF4005B0903F00103002B14D07B685B6D43F08A
:102B040001027B685A650023FB607B681B689B6835
:102B1400FB607B681B681A687B681B6822F04002B4
:102B24001A60FB687B685B6D002B4FD07B681B6869
:102B34005A687B681B6822F0E0025A607B680122B5
:102B440083F85120FB6903F00203002B04D1FB69D5
:102B540003F00103002B34D07B681B685A687B6840
:102B64001B6822F003025A607B68DB6C002B11D0D7
:102B74007B68DB6C174A5A637B68DB6C1846FEF78C
:102B8400CFFB0346002B05D07B685B6D43F040020E
:102B94007B685A657B689B6C002B16D07B689B6CAA
:102BA4000C4A5A637B689B6C1846FEF7B9FB0346D4
:102BB400002B0AD07B685B6D43F040027B685A654A
:102BC40003E0786800F01AF800E000BF00BF203787
:102BD400BD4680BD152D000880B483B000AF786079
:102BE40000BF0C37BD4680BC704780B483B000AFD3
:102BF400786000BF0C37BD4680BC704780B483B09A
:102C040000AF786000BF0C37BD4680BC704780B50C
:102C140086B000AF78607B685B6A7B61FEF76EF913
:102C240038617B681B681B6803F02003202B3BD0B2
:102C34007B691B685A687B691B6822F020025A6012
:102C44007B691B685A687B691B6822F002025A6020
:102C54003A696421786900F0F7F80346002B05D03F
:102C64007B695B6D43F020027B695A657B699B68D5
:102C7400002B0AD10023FB607B691B68DB68FB60C7
:102C84007B691B689B68FB60FB687B690022DA86B2
:102C94007B69012283F851207B695B6D002B03D093
:102CA4007869FFF7ABFF02E07869FFF795FF183703
:102CB400BD4680BD80B584B000AF78607B685B6A38
:102CC400FB60F868FFF791FF00BF1037BD4680BD79
:102CD40080B584B000AF78607B685B6AFB60FB689A
:102CE4001B685A68FB681B6822F003025A60FB6881
:102CF4005B6D43F01002FB685A65FB68012283F8A0
:102D04005120F868FFF77AFF00BF1037BD4680BD39
:102D140080B584B000AF78607B685B6AFB60FB6859
:102D24000022DA87FB680022DA86F868FFF766FF7C
:102D340000BF1037BD4680BD80B588B000AFF860D5
:102D4400B9603B601346FB71FEF7D8F80246BB6AD4
:102D54009B1A3A681344FB61FEF7D0F8B861394B0B
:102D64001B685B011B0DFA6902FB03F37B6154E0F2
:102D74003B68B3F1FF3F50D0FEF7C0F80246BB6991
:102D8400D31AFA699A4202D9FB69002B3DD1FB6838
:102D94001B685A68FB681B6822F0E0025A60FB68F3
:102DA4005B68B3F5827F11D1FB689B68B3F5004F74
:102DB40004D0FB689B68B3F5806F07D1FB681B6880
:102DC4001A68FB681B6822F040021A60FB689B6A61
:102DD400B3F5005F0FD1FB681B681A68FB681B68BA
:102DE40022F400521A60FB681B681A68FB681B68AF
:102DF40042F400521A60FB68012283F85120FB68F8
:102E0400002283F85020032317E07B69002B01D1B3
:102E14000023FB617B69013B7B61FB681B689A684B
:102E2400BB681340BA689A420CBF01230023DBB28B
:102E34001A46FB799A429BD1002318462037BD4697
:102E440080BD00BF0000002080B586B002AFF860EE
:102E5400B9607A607B680093BB6801220221F8683C
:102E6400FFF76AFF0346002B07D0FB685B6D43F056
:102E74002002FB685A65032313E07B680093BB6858
:102E840000228021F868FFF757FF0346002B07D084
:102E9400FB685B6D43F02002FB685A65032300E086
:102EA400002318461037BD4680BD034602449342B2
:102EB40000D1704703F8011BF9E7000070B5002644
:102EC4000C4D0D4C641BA410A64209D100F01AF855
:102ED40000260A4D0A4C641BA410A64205D170BDFD
:102EE40055F8043B98470136EEE755F8043B9847FC
:102EF4000136F2E7C8860708C8860708C8860708A7
:102F0400CC860708F8B500BFF8BC08BC9E467047DD
:0C2F1400F8B500BFF8BC08BC9E46704732
:102F20004650533A2020200000000000000000001E
:102F3000000000000000FC00000000000200000093
:102F4000000C020C020000000000000090D0BCD079
:102F5000BC900003000300001824FE448C00030210
:102F6000070201001824D8B04C80000300010201C0
:102F7000C038E438E0000102020102020806000045
:102F80000000000000000000000000F80402000043
:102F900000010204000204F8000000040201000025
:102FA0009060F86090000000010000002020FC20EC
:102FB00020000000010000000000000000000806E2
:102FC0000000000020202020200000000000000061
:102FD0000000000000000002000000000080601CF3
:102FE0000200040300000000F8040404F8000102D9
:102FF000020201000008FC000000000203020000C1
:103000001884442418000302020202000804242445
:10301000D80001020202010040B088FC80000000DC
:10302000000302003C242424C40001020202010027
:10303000F824242CC0000102020201000C04E41C4C
:103040000400000003000000D8242424D80001025A
:103050000202010038444444F80000030202010067
:10306000000010000000000002000000000020002E
:10307000000000000600000000205088040200004C
:10308000000001029090909090000000000000006D
:103090000002048850200002010000001804C4242B
:1030A0001800000002000000F804E494F800010297
:1030B0000202020000E09CF0800002030000030214
:1030C00004FC2424D800020302020100F8040404D2
:1030D0000C0001020202010004FC0404F8000203D7
:1030E0000202010004FC24740C000203020203002B
:1030F00004FC24740C00020302000000F0080444E5
:10310000CC4000010202010004FC2020FC04020368
:10311000000003020404FC04040002020302020093
:10312000000404FC040406040403000004FC24D08E
:103130000C0402030200030204FC0400000002036A
:1031400002020203FC3CC03CFC000300030003003D
:1031500004FC30C4FC04020302000300F80404046D
:10316000F80001020202010004FC242418000203FA
:1031700002000000F8848404F80001020207050040
:1031800004FC24649800020302000302182424446F
:103190008C000302020201000C04FC040C0000027B
:1031A0000302000004FC0000FC0400010202010014
:1031B000047C80E01C040000030000001CE03CE0F4
:1031C0001C00000300030000049C609C0400020338
:1031D00000030200041CE01C0400000203020000C3
:1031E0000C84641C04000203020203000000FE02BF
:1031F0000200000007040400000E30C000000000C0
:1032000000010200000202FE0000000404070000AA
:1032100000040204000000000000000000000000A4
:10322000000008080808080800000200000000006C
:10323000000000000040A0A0C00000010202030244
:1032400004FC2020C00000030202010000C0202076
:10325000600000010202020000C02024FC00000106
:103260000202030200C0A0A0C0000001020202008E
:103270000020F82424040002030202000040A0A061
:10328000602000070A0A0A0404FC2020C000020390
:10329000020003020020E40000000002030200001C
:1032A000000020E4000008080807000004FC80E09B
:1032B00020200203020003020404FC0000000202BA
:1032C00003020200E020E020C0000300030003002E
:1032D00020E02020C00002030200030200C02020E2
:1032E000C00000010202010020E02020C000080F01
:1032F0000A02010000C02020E0000001020A0F08BD
:1033000020E0402020000203020000000060A0A096
:1033100020000002020203000020F820000000004C
:103320000102020020E00020E0000001020203028E
:1033300020E0208060200000030100006080E08029
:103340006000000300030000206080602000020392
:103350000003020020E02080602008080701000030
:103360000020A0602000000203020200000020DE16
:103370000200000000070400000000FF0000000041
:10338000000F00000002DE20000000040700000023
:10339000020102040402000000000000060C00000C
:1033A000282F000800010307070F1F3F7FFFFFFFC3
:1033B000FFFFFFFFFFFFFFFFFFFFFFFFFFFFFFFF1D
:1033C000FFFFFFFFFFFFFFFFFFFFFFFFFFFFFFFF0D
:1033D000FFFFFFFFFFFFFFFFFFFFFFFFFFFFFFFFFD
:1033E000FFFFFFFFFFFFFFFFFFFFFFFFFFFFFFFFED
:1033F000FFFFFFFFFFFFFFFFFFFFFFFFFFFFFFFFDD
:10340000FFFFFFFFFFFFFFFFFFFFFFFFFFFFFFFFCC
:10341000FFFFFFFFFFFFFFFFFFFFFFFFFFFFFFFFBC
:10342000FFFFFFFFFFFFFFFFFFFFFFFFFFFFFFFFAC
:10343000FEFCFCF8F0F0E0C080800000000000001E
:10344000000000000000000000000000000000007C
:10345000000000000000000000000000000000006C
:10346000000000000000000000000000000000005C
:10347000000000000000000000000000000000004C
:10348000000000000000000000000000000000003C
:10349000000000000000000000000000000000002C
:1034A000000000000000000000000000000000001C
:1034B000000000000000000000000000000000000C
:1034C00000000000000000000000000000000000FC
:1034D00000000000000000000000000000000000EC
:1034E00000000000000000000000000000000103D8
:1034F00003070F1F3F7FFFFFFFFFFFFFFFFFFFFFE0
:10350000FFFFFFFFFFFFFFFFFFFFFFFFFFFFFFFFCB
:10351000FFFFFFFFFFFFFFFFFFFFFFFFFFFFFFFFBB
:10352000FFFFFFFFFFFFFFFFFFFFFFFFFFFFFFFFAB
:10353000FFFFFFFFFFFFFFFFFFFFFFFFFFFFFFFF9B
:10354000FFFFFFFFFFFFFFFFFFFFFFFFFFFFFFFF8B
:10355000FFFFFFFFFFFFFFFFFFFFFFFFFFFFFFFF7B
:10356000FFFFFFFFFFFFFFFFFFFFFFFFFFFFFFFF6B
:10357000FFFFFFFFFFFFFFFFFFFFFFFEFCFCF8F078
:10358000E0E0C0800000000000000000000000003B
:10359000000000000000000000000000000000002B
:1035A000000000000000000000000000000000001B
:1035B000000000000000000000000000000000000B
:1035C00000000000000000000000000000000000FB
:1035D00000000000000000000000000000000000EB
:1035E00000000000000000000000000000000000DB
:1035F00000000000000000000000000000000000CB
:1036000000000000000000000000000000000000BA
:1036100000000000000000000000000000000000AA
:10362000000000000000000000000000000000009A
:1036300000000000000000010303070F1F3F7FFF91
:10364000FFFFFFFFFFFFFFFFFFFFFFFFFFFFFFFF8A
:10365000FFFFFFFFFFFFFFFFFFFFFFFFFFFFFFFF7A
:10366000FFFFFFFFFFFFFFFFFFFFFFFFFFFFFFFF6A
:10367000FFFFFFFFFFFFFFFFFFFFFFFFFFFFFFFF5A
:10368000FFFFFFFFFFFFFFFFFFFFFFFFFFFFFFFF4A
:10369000FFFFFFFFFFFFFFFFFFFFFFFFFFFFFFFF3A
:1036A000FFFFFFFFFFFFFFFFFFFFFFFFFFFFFFFF2A
:1036B000FFFFFFFFFFFFFFFFFFFFFFFFFFFFFFFF1A
:1036C000FFFFFFFFFFFFFEFCF8F8F0E0C0C0800046
:1036D00000000000000000000000000000000000EA
:1036E00000000000000000000000000000000000DA
:1036F00000000000000000000000000000000000CA
:1037000000000000000000000000000000000000B9
:1037100000000000000000000000000000000000A9
:103720000000000000000000000000000000000099
:103730000000000000000000000000000000000089
:103740000000000000000000000000000000000079
:103750000000000000000000000000000000000069
:103760000000000000000000000000000000000059
:103770000000000000000000000000000000000049
:10378000010307070F1F3F7FFFFFFFFFFFFFFFFF43
:10379000FFFFFFFFFFFFFFFFFFFFFFFFFFFFFFFF39
:1037A000FFFFFFFFFFFFFFFFFFFFFFFFFFFFFFFF29
:1037B000FFFFFFFFFFFFFFFFFFFFFFFFFFFFFFFF19
:1037C000FFFFFFFFFFFFFFFFFFFFFFFFFFFFFFFF09
:1037D000FFFFFFFFFFFFFFFFFFFFFFFFFFFFFFFFF9
:1037E000FFFFFFFFFFFFFFFFFFFFFFFFFFFFFFFFE9
:1037F000FFFFFFFFFFFFFFFFFFFFFFFFFFFFFFFFD9
:10380000FFFFFFFFFFFFFFFFFFFFFFFFFFFFFFFFC8
:10381000FFFEFCF8F0F0E0C0808000000000000037
:103820000000000000000000000000000000000098
:103830000000000000000000000000000000000088
:103840000000000000000000000000000000000078
:103850000000000000000000000000000000000068
:103860000000000000000000000000000000000058
:103870000000000000000000000000000000000048
:103880000000000000000000000000000000000038
:103890000000000000000000000000000000000028
:1038A0000000000000000000000000000000000018
:1038B0000000000000000000000000000000000008
:1038C000000000000000000000010303070F1F3F7D
:1038D0007FFFFFFFFFFFFFFFFFFFFFFFFFFFFFFF78
:1038E000FFFFFFFFFFFFFFFFFFFFFFFFFFFFFFFFE8
:1038F000FFFFFFFFFFFFFFFFFFFFFFFFFFFFFFFFD8
:10390000FFFFFFFFFFFFFFFFFFFFFFFFFFFFFFFFC7
:10391000FFFFFFFFFFFFFFFFFFFFFFFFFFFFFFFFB7
:10392000FFFFFFFFFFFFFFFFFFFFFFFFFFFFFFFFA7
:10393000FFFFFFFFFFFFFFFFFFFFFFFFFFFFFFFF97
:10394000FFFFFFFFFFFFFFFFFFFFFFFFFFFFFFFF87
:10395000FFFFFFFFFFFFFFFFFFFFFFFEFCFCF8F094
:10396000E0E0C080800000000000000000000000D7
:103970000000000000000000000000000000000047
:103980000000000000000000000000000000000037
:103990000000000000000000000000000000000027
:1039A0000000000000000000000000000000000017
:1039B0000000000000000000000000000000000007
:1039C00000000000000000000000000000000000F7
:1039D00000000000000000000000000000000000E7
:1039E00000000000000000000000000000000000D7
:1039F00000000000000000000000000000000000C7
:103A000000000000000000000000000000000000B6
:103A10000000010103070F1F3F7FFFFFFFFFFFFFB4
:103A2000FFFFFFFFFFFFFFFFFFFFFFFFFFFFFFFFA6
:103A3000FFFFFFFFFFFFFFFFFFFFFFFFFFFFFFFF96
:103A4000FFFFFFFFFFFFFFFFFFFFFFFFFFFFFFFF86
:103A5000FFFFFFFFFFFFFFFFFFFFFFFFFFFFFFFF76
:103A6000FFFFFFFFFFFFFFFFFFFFFFFFFFFFFFFF66
:103A7000FFFFFFFFFFFFFFFFFFFFFFFFFFFFFFFF56
:103A8000FFFFFFFFFFFFFFFFFFFFFFFFFFFFFFFF46
:103A9000FFFFFFFFFFFFFFFFFFFFFFFFFFFFFFFF36
:103AA000FFFFFFFFFFFFFEFCFCF8F0E0E0C080003E
:103AB0000000000000000000000000000000000006
:103AC00000000000000000000000000000000000F6
:103AD00000000000000000000000000000000000E6
:103AE00000000000000000000000000000000000D6
:103AF00000000000000000000000000000000000C6
:103B000000000000000000000000000000000000B5
:103B100000000000000000000000000000000000A5
:103B20000000000000000000000000000000000095
:103B30000000000000000000000000000000000085
:103B40000000000000000000000000000000000075
:103B50000000000000000000000000010303070F48
:103B60001F3F7FFFFFFFFFFFFFFFFFFFFFFFFFFF85
:103B7000FFFFFFFFFFFFFFFFFFFFFFFFFFFFFFFF55
:103B8000FFFFFFFFFFFFFFFFFFFFFFFFFFFFFFFF45
:103B9000FFFFFFFFFFFFFFFFFFFFFFFFFFFFFFFF35
:103BA000FFFFFFFFFFFFFFFFFFFFFFFFFFFFFFFF25
:103BB000FFFFFFFFFFFFFFFFFFFFFFFFFFFFFFFF15
:103BC000FFFFFFFFFFFFFFFFFFFFFFFFFFFFFFFF05
:103BD000FFFFFFFFFFFFFFFFFFFFFFFFFFFFFFFFF5
:103BE000FFFFFFFFFFFFFFFFFFFFFFFFFFFFFFFFE5
:103BF000FFFEFCF8F8F0E0C0C0800000000000000C
:103C000000000000000000000000000000000000B4
:103C100000000000000000000000000000000000A4
:103C20000000000000000000000000000000000094
:103C30000000000000000000000000000000000084
:103C40000000000000000000000000000000000074
:103C50000000000000000000000000000000000064
:103C60000000000000000000000000000000000054
:103C70000000000000000000000000000000000044
:103C80000000000000000000000000000000000034
:103C90000000000000000000000000000000000024
:103CA00000000000010307070F1F3F7FFFFFFFFF1A
:103CB000FFFFFFFFFFFFFFFFFFFFFFFFFFFFFFFF14
:103CC000FFFFFFFFFFFFFFFFFFFFFFFFFFFFFFFF04
:103CD000FFFFFFFFFFFFFFFFFFFFFFFFFFFFFFFFF4
:103CE000FFFFFFFFFFFFFFFFFFFFFFFFFFFFFFFFE4
:103CF000FFFFFFFFFFFFFFFFFFFFFFFFFFFFFFFFD4
:103D0000FFFFFFFFFFFFFFFFFFFFFFFFFFFFFFFFC3
:103D1000FFFFFFFFFFFFFFFFFFFFFFFFFFFFFFFFB3
:103D2000FFFFFFFFFFFFFFFFFFFFFFFFFFFFFFFFA3
:103D3000FFFFFFFFFFFFFFFFFFFFFFFFFEFCF8F8A5
:103D4000F0E0C0C0800000000000000000000000A3
:103D50000000000000000000000000000000000063
:103D60000000000000000000000000000000000053
:103D70000000000000000000000000000000000043
:103D80000000000000000000000000000000000033
:103D90000000000000000000000000000000000023
:103DA0000000000000000000000000000000000013
:103DB0000000000000000000000000000000000003
:103DC00000000000000000000000000000000000F3
:103DD00000000000000000000000000000000000E3
:103DE00000000000000000000000000000010307C8
:103DF0000F0F1F3F7FFFFFFFFFFFFFFFFFFFFFFFD3
:103E0000FFFFFFFFFFFFFFFFFFFFFFFFFFFFFFFFC2
:103E1000FFFFFFFFFFFFFFFFFFFFFFFFFFFFFFFFB2
:103E2000FFFFFFFFFFFFFFFFFFFFFFFFFFFFFFFFA2
:103E3000FFFFFFFFFFFFFFFFFFFFFFFFFFFFFFFF92
:103E4000FFFFFFFFFFFFFFFFFFFFFFFFFFFFFFFF82
:103E5000FFFFFFFFFFFFFFFFFFFFFFFFFFFFFFFF72
:103E6000FFFFFFFFFFFFFFFFFFFFFFFFFFFFFFFF62
:103E7000FFFFFFFFFFFFFFFFFFFFFFFFFFFFFFFF52
:103E8000FFFFFFFFFFFFFEFEFCF8F8F0E0C0C08080
:103E90000000000000000000000000000000000022
:103EA0000000000000000000000000000000000012
:103EB0000000000000000000000000000000000002
:103EC00000000000000000000000000000000000F2
:103ED00000000000000000000000000000000000E2
:103EE00000000000000000000000000000000000D2
:103EF00000000000000000000000000000000000C2
:103F000000000000000000000000000000000000B1
:103F100000000000000000000000000000000000A1
:103F20000000000000000000000000000000000091
:103F30000000000000000103070F0F1F3F7FFFFF7D
:103F4000FFFFFFFFFFFFFFFFFFFFFFFFFFFFFFFF81
:103F5000FFFFFFFFFFFFFFFFFFFFFFFFFFFFFFFF71
:103F6000FFFFFFFFFFFFFFFFFFFFFFFFFFFFFFFF61
:103F7000FFFFFFFFFFFFFFFFFFFFFFFFFFFFFFFF51
:103F8000FFFFFFFFFFFFFFFFFFFFFFFFFFFFFFFF41
:103F9000FFFFFFFFFFFFFFFFFFFFFFFFFFFFFFFF31
:103FA000FFFFFFFFFFFFFFFFFFFFFFFFFFFFFFFF21
:103FB000FFFFFFFFFFFFFFFFFFFFFFFFFFFFFFFF11
:103FC000FFFFFFFFFFFFFFFFFFFFFFFFFFFFFFFF01
:103FD000FFFEFEFCF8F0F0E0C0C080000000000032
:103FE00000000000000000000000000000000000D1
:103FF00000000000000000000000000000000000C1
:1040000000000000000000000000000000000000B0
:1040100000000000000000000000000000000000A0
:104020000000000000000000000000000000000090
:104030000000000000000000000000000000000080
:104040000000000000000000000000000000000070
:104050000000000000000000000000000000000060
:104060000000000000000000000000000000000050
:10407000000000000000000000000000000000013F
:1040800003070F1F1F3F7FFFFFFFFFFFFFFFFFFF24
:10409000FFFFFFFFFFFFFFFFFFFFFFFFFFFFFFFF30
:1040A000FFFFFFFFFFFFFFFFFFFFFFFFFFFFFFFF20
:1040B000FFFFFFFFFFFFFFFFFFFFFFFFFFFFFFFF10
:1040C000FFFFFFFFFFFFFFFFFFFFFFFFFFFFFFFF00
:1040D000FFFFFFFFFFFFFFFFFFFFFFFFFFFFFFFFF0
:1040E000FFFFFFFFFFFFFFFFFFFFFFFFFFFFFFFFE0
:1040F000FFFFFFFFFFFFFFFFFFFFFFFFFFFFFFFFD0
:10410000FFFFFFFFFFFFFFFFFFFFFFFFFFFFFFFFBF
:10411000FFFFFFFFFFFFFFFFFFFFFFFFFEFEFCF8BB
:10412000F0F0E0C08080000000000000000000000F
:10413000000000000000000000000000000000007F
:10414000000000000000000000000000000000006F
:10415000000000000000000000000000000000005F
:10416000000000000000000000000000000000004F
:10417000000000000000000000000000000000003F
:10418000000000000000000000000000000000002F
:10419000000000000000000000000000000000001F
:1041A000000000000000000000000000000000000F
:1041B00000000000000000000000000000000000FF
:1041C00000000000000000000103070F1F1F3F7FD9
:1041D000FFFFFFFFFFFFFFFFFFFFFFFFFFFFFFFFEF
:1041E000FFFFFFFFFFFFFFFFFFFFFFFFFFFFFFFFDF
:1041F000FFFFFFFFFFFFFFFFFFFFFFFFFFFFFFFFCF
:10420000FFFFFFFFFFFFFFFFFFFFFFFFFFFFFFFFBE
:10421000FFFFFFFFFFFFFFFFFFFFFFFFFFFFFFFFAE
:10422000FFFFFFFFFFFFFFFFFFFFFFFFFFFFFFFF9E
:10423000FFFFFFFFFFFFFFFFFFFFFFFFFFFFFFFF8E
:10424000FFFFFFFFFFFFFFFFFFFFFFFFFFFFFFFF7E
:10425000FFFFFFFFFFFFFFFFFFFFFFFFFFFFFFFF6E
:10426000FFFFFFFFFFFFFFFEFEFCF8F0F0E0C08065
:1042700080000000000000000000000000000000BE
:10428000000000000000000000000000000000002E
:10429000000000000000000000000000000000001E
:1042A000000000000000000000000000000000000E
:1042B00000000000000000000000000000000000FE
:1042C00000000000000000000000000000000000EE
:1042D00000000000000000000000000000000000DE
:1042E00000000000000000000000000000000000CE
:1042F00000000000000000000000000000000000BE
:1043000000000000000000000000000000000000AD
:10431000000103070F1F3F3F7FFFFFFFFFFFFFFF6E
:10432000FFFFFFFFFFFFFFFFFFFFFFFFFFFFFFFF9D
:10433000FFFFFFFFFFFFFFFFFFFFFFFFFFFFFFFF8D
:10434000FFFFFFFFFFFFFFFFFFFFFFFFFFFFFFFF7D
:10435000FFFFFFFFFFFFFFFFFFFFFFFFFFFFFFFF6D
:10436000FFFFFFFFFFFFFFFFFFFFFFFFFFFFFFFF5D
:10437000FFFFFFFFFFFFFFFFFFFFFFFFFFFFFFFF4D
:10438000FFFFFFFFFFFFFFFFFFFFFFFFFFFFFFFF3D
:10439000FFFFFFFFFFFFFFFFFFFFFFFFFFFFFFFF2D
:1043A000FFFFFFFFFFFFFFFFFFFFFFFFFFFFFFFF1D
:1043B000FFFFFEFEFCF8F0F0E0C08080000000008F
:1043C00000000000000000000000000000000000ED
:1043D00000000000000000000000000000000000DD
:1043E00000000000000000000000000000000000CD
:1043F00000000000000000000000000000000000BD
:1044000000000000000000000000000000000000AC
:10441000000000000000000000000000000000009C
:10442000000000000000000000000000000000008C
:10443000000000000000000000000000000000007C
:10444000000000000000000000000000000000006C
:10445000000000000000000000000103070F1F1F04
:104460003F7FFFFFFFFFFFFFFFFFFFFFFFFFFFFF9C
:10447000FFFFFFFFFFFFFFFFFFFFFFFFFFFFFFFF4C
:10448000FFFFFFFFFFFFFFFFFFFFFFFFFFFFFFFF3C
:10449000FFFFFFFFFFFFFFFFFFFFFFFFFFFFFFFF2C
:1044A000FFFFFFFFFFFFFFFFFFFFFFFFFFFFFFFF1C
:1044B000FFFFFFFFFFFFFFFFFFFFFFFFFFFFFFFF0C
:1044C000FFFFFFFFFFFFFFFFFFFFFFFFFFFFFFFFFC
:1044D000FFFFFFFFFFFFFFFFFFFFFFFFFFFFFFFFEC
:1044E000FFFFFFFFFFFFFF7F7F3FFF7F3F3F3F3F1C
:1044F0003F3F3F3F3FBFFFFFFFFFFFFFFFFEFEFCD1
:10450000F8F0F0E0C0808000000000000000000033
:10451000000000000000000000000000000000009B
:10452000000000000000000000000000000000008B
:10453000000000000000000000000000000000007B
:10454000000000000000000000000000000000006B
:10455000000000000000000000000000000000005B
:10456000000000000000000000000000000000004B
:10457000000000000000000000000000000000003B
:10458000000000000000000000000000000000002B
:10459000000000000000000000000000000000001B
:1045A0000000000103070F1F1F3F7FFFFFFFFFFFFA
:1045B000FFFFFFFFFFFFFFFFFFFFFFFFFFFFFFFF0B
:1045C000FFFFFFFFFFFFFFFFFFFFFFFFFFFFFFFFFB
:1045D000FFFFFFFFFFFFFFFFFFFFFFFFFFFFFFFFEB
:1045E000FFFFFFFFFFFFFFFFFFFFFFFFFFFFFFFFDB
:1045F000FFFFFFFFFFFFFFFFFFFFFFFFFFFFFFFFCB
:10460000FFFFFFFFFFFFFFFFFFFFFFFFFFFFFF7F3A
:104610003F3F3F7F7FFFFFFFFFFFFFFFFFFFFFFFEA
:10462000FFFFFF7F3FBFBF5C58180C84040080E28F
:10463000E0F0F0F0F0E1E1E7FFFFFFFFFFFFFFFF39
:10464000FFFF7F7F3F3F3FFFFEFCFCF8F0F0E0C044
:10465000808000000000000000000000000000005A
:10466000000000000000000000000000000000004A
:10467000000000000000000000000000000000003A
:10468000000000000000000000000000000000002A
:10469000000000000000000000000000000000001A
:1046A000000000000000000000000000000000000A
:1046B00000000000000000000000000000000000FA
:1046C00000000000000000000000000000000000EA
:1046D00000000000000000000000000000000000DA
:1046E0000000000000000000000000000103070FB0
:1046F0001F3F3F7FFFFFFFFFFFFFFFFFFFFFFFFFAA
:10470000FFFFFFFFFFFFFFFFFFFFFFFFFFFFFFFFB9
:10471000FFFFFFFFFFFFFFFFFFFFFFFFFFFFFFFFA9
:10472000FFFFFFFFFFFFFFFFFFFFFFFFFFFFFFFF99
:10473000FFFFFFFFFFFFFFFFFFFFFFFFFBE1C18167
:1047400081010103030101010101000000000000DB
:1047500000000000000000400103070F0F878702E0
:104760000080E0C0800000CCFAFBF7F7EFCF1F1FFE
:104770003F7F7FFFFFFFFFFFFF7F7F3F1F0F07830D
:10478000C1E0F0F8FCFEFFFFFFFFFFFFFFFFFFFFB0
:10479000FFFFFFFEFCFCF8F0E0E0C08080000000BE
:1047A0000000000000000000000000000000000009
:1047B00000000000000000000000000000000000F9
:1047C00000000000000000000000000000000000E9
:1047D00000000000000000000000000000000000D9
:1047E00000000000000000000000000000000000C9
:1047F00000000000000000000000000000000000B9
:1048000000000000000000000000000000000000A8
:104810000000000000000000000000000000000098
:104820000000000000000000000000000000000088
:1048300000000000000103070F1F3F3F7FFFFFFF45
:10484000FFFFFFFFFFFFFFFFFFFFFFFFFFFFFFFF78
:10485000FFFFFFFFFFFFFFFFFFFFFFFFFFFFFFFF68
:10486000FFFFFFFFFFFFFFFFFFFFFFFFFFFFFFFF58
:10487000FFFFFFFFFFFFFFFFFFFFFFFFFFFFFFFF48
:104880007F3F3E1C000000200000000000080800E0
:104890000000000000000000000000050D0D0F06E4
:1048A00004000101030700010F0F0F0707078786A8
:1048B00080869E1F0F0783C1E0F0F8FCFEFFFFFF1C
:1048C000FFFFFFFFFFFFFFFFFFFFFFFFFFFFFFFFF8
:1048D000FFFFFFFFFFFFFFFFFFFFFFFFFFFFFEFCEC
:1048E000FCF8F0E000000000000000000000000004
:1048F00000000000000000000000000000000000B8
:1049000000000000000000000000000000000000A7
:104910000000000000000000000000000000000097
:104920000000000000000000000000000000000087
:104930000000000000000000000000000000000077
:104940000000000000000000000000000000000067
:104950000000000000000000000000000000000057
:104960000000000000000000000000000000000047
:104970000000000000000000000000000000010333
:10498000070F1F3F7FFFFFFFFFFFFFFFFFFFFFFF3F
:10499000FFFFFFFFFFFFFFFFFFFFFFFFFFFFFFFF27
:1049A000FFFFFFFFFFFFFFFFFFFFFFFFFFFFFFFF17
:1049B000FFFFFFFFFFFFFFFFFFFFFFFFFFFFFFFF07
:1049C000FFFEFC080060C080000000000000040042
:1049D0000000000000000000000000000000400097
:1049E00000000000000000000000000303030101BC
:1049F0000101010101908103030703030303030382
:104A0000030303010101010103030307070F1F3F14
:104A10007FFFFFFFFFFFFFFFFFFFFFFFFFFFFFFF26
:104A2000FFFFFFFF0000000000000000000000008A
:104A30000000000000000000000000000000000076
:104A40000000000000000000000000000000000066
:104A50000000000000000000000000000000000056
:104A60000000000000000000000000000000000046
:104A70000000000000000000000000000000000036
:104A80000000000000000000000000000000000026
:104A90000000000000000000000000000000000016
:104AA0000000000000000000000000000000000006
:104AB00000000000000000000000000000000000F6
:104AC000000000000000010103070F1F3F7FFFFFF0
:104AD000FFFFFFFFFFFFFFFFFFFFFFFFFFFFFFFFE6
:104AE000FFFFFFFFFFFFFFFFFFFFFFFFFFFFFFFFD6
:104AF000FFFFFFFFFFFFFFFFFFFFFFFFFFFFFFFFC6
:104B0000FFFFFFFFFEF8F4740F1E0E0C08000000FC
:104B10000000000000000000000000000000000095
:104B20000101000000000000020000003000000051
:104B300000000000000000040000000000404018D9
:104B400018183CFCFCFCFCF8F8F0F0F8F8F8F8FC5D
:104B5000FEFFFFFFFFFFFFFFFFFFFFFFFFFFFFFF66
:104B6000FFFFFFFF00000000000000000000000049
:104B70000000000000000000000000000000000035
:104B80000000000000000000000000000000000025
:104B90000000000000000000000000000000000015
:104BA0000000000000000000000000000000000005
:104BB00000000000000000000000000000000000F5
:104BC00000000000000000000000000000000000E5
:104BD00000000000000000000000000000000000D5
:104BE00000000000000000000000000000000000C5
:104BF00000000000000000000000000000000000B5
:104C000000000000000000000000000000000001A3
:104C10000303070F1F3F7FFFFFFFFFFFFFFFFFFFA4
:104C2000FFFFFFFFFFFFFFFFFFFFFFFFFFFFFFFF94
:104C3000FFFFFFFFFFFFFFFFFFFFFFFFFFFFFFFF84
:104C4000FFFFFFFFFFFFFFFFFEFCF9F2E0E4E8E8F3
:104C5000E0F0D0C8C0C0C0C0C0C0C0C0C0C0C0E0CC
:104C6000E0C0C0C0F0E0E0C1C3C7E7E6E6E0E0F0C6
:104C7000F0F0F0F0E0E8F8F8FCFCFC9C8CC0E0F60A
:104C8000FEFEFFFFFFFFFFFFFFFFFFFFFFFFFFFF36
:104C9000FFFFFFFFFFFFFFFFFFFFFFFFFFFFFFFF24
:104CA000FFFFFFFF00000000000000000000000008
:104CB00000000000000000000000000000000000F4
:104CC00000000000000000000000000000000000E4
:104CD00000000000000000000000000000000000D4
:104CE00000000000000000000000000000000000C4
:104CF00000000000000000000000000000000000B4
:104D000000000000000000000000000000000000A3
:104D10000000000000000000000000000000000093
:104D20000000000000000000000000000000000083
:104D30000000000000000000000000000000000073
:104D40000000000000000000000000000000000063
:104D50000000000000000000010303070F1F3F7F59
:104D6000FFFFFFFFFFFFFFFFFFFFFFFFFFFFFFFF53
:104D7000FFFFFFFFFFFFFFFFFFFFFFFFFFFFFFFF43
:104D8000FFFFFFFFFFFFFFFFFFFFFFFFFFFFFFFF33
:104D9000FFFFFFFFFFFFFFFFFFFFFFFFFFFFFFFF23
:104DA000FFFFFFFFFFFFFFFFFFFFFFFFFFFFFFFF13
:104DB000FFFFFFFFFFFFFFFFFFFFFFFFFFFFFFFF03
:104DC000FFFFFFFFFFFFFFFFFFFFFFFFFFFFFFFFF3
:104DD000FFFFFFFFFFFFFFFFFFFFFFFFFFFFFFFFE3
:104DE000FFFFFFFF000000000000000000000000C7
:104DF00000000000000000000000000000000000B3
:104E000000000000000000000000000000000000A2
:104E10000000000000000000000000000000000092
:104E20000000000000000000000000000000000082
:104E30000000000000000000000000000000000072
:104E40000000000000000000000000000000000062
:104E50000000000000000000000000000000000052
:104E60000000000000000000000000000000000042
:104E70000000000000000000000000000000000032
:104E80000000000000000000000000000000000022
:104E90000000000000000000000000000000000012
:104EA00000000103070F1F3F7FFFFFFFFFFFFFFF12
:104EB000FFFFFFFFFFFFFFFFFFFFFFFFFFFFFFFF02
:104EC000FFFFFFFFFFFFFFFFFFFFFFFFFFFFFFFFF2
:104ED000FFFFFFFFFFFFFFFFFFFFFFFFFFFFFFFFE2
:104EE000FFFFFFFFFFFFFFFFFFFFFFFFFFFFFFFFD2
:104EF000FFFFFFFFFFFFFFFFFFFFFFFFFFFFFFFFC2
:104F0000FFFFFFFFFFFFFFFFFFFFFFFFFFFFFFFFB1
:104F1000FFFFFFFFFFFFFFFFFFFFFFFFFFFFFFFFA1
:104F2000FFFFFFFF00000000000000000000000085
:104F30000000000000000000000000000000000071
:104F40000000000000000000000000000000000061
:104F50000000000000000000000000000000000051
:104F60000000000000000000000000000000000041
:104F70000000000000000000000000000000000031
:104F80000000000000000000000000000000000021
:104F90000000000000000000000000000000000011
:104FA0000000000000000000000000000000000001
:104FB00000000000000000000000000000000000F1
:104FC00000000000000000000000000000000000E1
:104FD00000000000000000000000000000000000D1
:104FE00000000000000000000000010103070F1F87
:104FF0003F7FFFFFFFFFFFFFFFFFFFFFFFFFFFFF01
:10500000FFFFFFFFFFFFFFFFFFFFFFFFFFFFFFFFB0
:10501000FFFFFFFFFFFFFFFFFFFFFFFFFFFFFFFFA0
:10502000FFFFFFFFFFFFFFFFFFFFFFFFFFFFFFFF90
:10503000FFFFFFFFFFFFFFFFFFFFFFFFFFFFFFFF80
:10504000FFFFFFFFFFFFFFFFFFFFFFFFFFFFFFFF70
:10505000FFFFFFFFFFFFFFFFFFFFFFFFFFFFFFFF60
:10506000FFFFFFFF00000000000000000000000044
:105070000000000000000000000000000000000030
:105080000000000000000000000000000000000020
:105090000000000000000000000000000000000010
:1050A0000000000000000000000000000000000000
:1050B00000000000000000000000000000000000F0
:1050C00000000000000000000000000000000000E0
:1050D00000000000000000000000000000000000D0
:1050E00000000000000000000000000000000000C0
:1050F00000000000000000000000000000000000B0
:10510000000000000000000000000000000000009F
:10511000000000000000000000000000000000008F
:10512000000000000000000000000000000000007F
:10513000000000010103070F1F3F7FFFFFFFFFFF7C
:10514000FFFFFFFFFFFFFFFFFFFFFFFFFFFFFFFF6F
:10515000FFFFFFFFFFFFFFFFFFFFFFFFFFFFFFFF5F
:10516000FFFFFFFFFFFFFFFFFFFFFFFFFFFFFFFF4F
:10517000FFFFFFFFFFFFFFFFFFFFFFFFFFFFFFFF3F
:10518000FFFFFFFFFFFFFFFFFFFFFFFFFFFFFFFF2F
:10519000FFFFFFFFFFFFFFFFFFFFFFFFFFFFFFFF1F
:1051A000FFFFFFFF00000000000000000000000003
:1051B00000000000000000000000000000000000EF
:1051C00000000000000000000000000000000000DF
:1051D00000000000000000000000000000000000CF
:1051E00000000000000000000000000000000000BF
:1051F00000000000000000000000000000000000AF
:10520000000000000000000000000000000000009E
:10521000000000000000000000000000000000008E
:10522000000000000000000000000000000000007E
:10523000000000000000000000000000000000006E
:10524000000000000000000000000000000000005E
:10525000000000000000000000000000000000004E
:10526000000000000000000000000000000000003E
:105270000000000000000000000000000103030720
:105280000F1F3F7FFFFFFFFFFFFFFFFFFFFFFFFF3E
:10529000FFFFFFFFFFFFFFFFFFFFFFFFFFFFFFFF1E
:1052A000FFFFFFFFFFFFFFFFFFFFFFFFFFFFFFFF0E
:1052B000FFFFFFFFFFFFFFFFFFFFFFFFFFFFFFFFFE
:1052C000FFFFFFFFFFFFFFFFFFFFFFFFFFFFFFFFEE
:1052D000FFFFFFFFFFFFFFFFFFFFFFFFFFFFFFFFDE
:1052E000FFFFFFFF000000000000000000000000C2
:1052F00000000000000000000000000000000000AE
:10530000000000000000000000000000000000009D
:10531000000000000000000000000000000000008D
:10532000000000000000000000000000000000007D
:10533000000000000000000000000000000000006D
:10534000000000000000000000000000000000005D
:10535000000000000000000000000000000000004D
:10536000000000000000000000000000000000003D
:10537000000000000000000000000000000000002D
:10538000000000000000000000000000000000001D
:10539000000000000000000000000000000000000D
:1053A00000000000000000000000000000000000FD
:1053B00000000000000000000000000000000000ED
:1053C0000000000000010303070F1F3F7FFFFFFFE6
:1053D000FFFFFFFFFFFFFFFFFFFFFFFFFFFFFFFFDD
:1053E000FFFFFFFFFFFFFFFFFFFFFFFFFFFFFFFFCD
:1053F000FFFFFFFFFFFFFFFFFFFFFFFFFFFFFFFFBD
:10540000FFFFFFFFFFFFFFFFFFFFFFFFFFFFFFFFAC
:10541000FFFFFFFFFFFFFFFFFFFFFFFFFFFFFFFF9C
:10542000FFFFFFFF00000000000000000000000080
:10543000000000000000000000000000000000006C
:10544000000000000000000000000000000000005C
:10545000000000000000000000000000000000004C
:10546000000000000000000000000000000000003C
:10547000000000000000000000000000000000002C
:10548000000000000000000000000000000000001C
:10549000000000000000000080808080800000008C
:1054A00000000000000000000000000000000000FC
:1054B00000000000000000000000000000000000EC
:1054C00000000000000000000000000000000000DC
:1054D00000000000000000000000000000000000CC
:1054E00000000000000000000000000000000000BC
:1054F00000000000000000000000000000000000AC
:105500000000000000000000000000000000010397
:1055100007070F1F3F7FFFFFFFFFFFFFFFFFFFFF9B
:10552000FFFFFFFFFFFFFFFFFFFFFFFFFFFFFFFF8B
:10553000FFFFFFFFFFFFFFFFFFFFFFFFFFFFFFFF7B
:10554000FFFFFFFFFFFFFFFFFFFFFFFFFFFFFFFF6B
:10555000FFFFFFFFFFFFFFFFFFFFFFFFFFFFFFFF5B
:10556000FFFFFFFF0000000000000000000000003F
:10557000000000000000000000000000000000002B
:10558000000000000000000000000000000000001B
:10559000000000000000000000000000000000000B
:1055A00000000000000000000000000000000000FB
:1055B00000000000000000000000000000000000EB
:1055C0000000000000000000000000800080E0F00B
:1055D000F8FCFEFEFFFFFFFFFFFFFFFFFFFFFFFFE7
:1055E000FFFFFFFFFEFEFCFCFCF8E0800000000077
:1055F00000000000000000000000000000000000AB
:10560000000000000000000000000000000000009A
:10561000000000000000000000000000000000008A
:10562000000000000000000000000000000000007A
:10563000000000000000000000000000000000006A
:10564000000000000000000000000000000000005A
:10565000000000000000000103070F1F3F7FFFFF55
:10566000FFFFFFFFFFFFFFFFFFFFFFFFFFFFFFFF4A
:10567000FFFFFFFFFFFFFFFFFFFFFFFFFFFFFFFF3A
:10568000FFFFFFFFFFFFFFFFFFFFFFFFFFFFFFFF2A
:10569000FFFFFFFFFFFFFFFFFFFFFFFFFFFFFFFF1A
:1056A000FFFFFFFF000000000000000000000000FE
:1056B00000000000000000000000000000000000EA
:1056C00000000000000000000000000000000000DA
:1056D00000000000000000000000000000000000CA
:1056E00000000000000000000000000000000000BA
:1056F00000000000000000000000000000000000AA
:1057000000008080C0E0F0F0F8FCFCFFFEF8FCFF39
:10571000FFFFFFFFFFFFF3F3E3C7870F0F1F3F3FBD
:105720007FFFFFFFFFFFFFFFFFFFFFFFFFFE1C00EC
:105730000000000000000000000000000000000069
:105740000000000000000000000000000000000059
:105750000000000000000000000000000000000049
:105760000000000000000000000000000000000039
:105770000000000000000000000000000000000029
:105780000000000000000000000000000000000019
:105790000000000000000000000000000000000306
:1057A000070F3FFFFFFFFFFFFFFFFFFFFFFFFFFFB1
:1057B000FFFFFFFFFFFFFFFFFFFFFFFFFFFFFFFFF9
:1057C000FFFFFFFFFFFFFFFFFFFFFFFFFFFFFFFFE9
:1057D000FFFFFFFFFFFFFFFFFFFFFFFFFFFFFFFFD9
:1057E000FFFFFFFF000000000000000000000000BD
:1057F00000000000000000000000000000000000A9
:105800000000000000000000000000000000000098
:105810000000000000000000000000000000000088
:105820000000000000000000000000000000000078
:105830000000000000000000000000000000A0C008
:10584000E0FC7E7F6FFF7F7F7FFFFFFFFFFFFFFF9B
:10585000FFFFFFFFFFFFDFFF9FBB8F078B83080862
:1058600010200113274F1F3F7FFFFFFF7F1F040002
:105870000000000000000000000000000000000028
:105880000000000000000000000000000000000018
:105890000000000000000000000000000000000008
:1058A00000000000000000000000000000000000F8
:1058B00000000000000000000000000000000000E8
:1058C00000000000000000000000000000000000D8
:1058D00000000000000000000000000000000000C8
:1058E00000000000031FFFFFFFFFFFFFFFFFFFFFA0
:1058F000FFFFFFFFFFFFFFFFFFFFFFFFFFFFFFFFB8
:10590000FFFFFFFFFFFFFFFFFFFFFFFFFFFFFFFFA7
:10591000FFFFFFFFFFFFFFFFFFFFFFFFFFFFFFFF97
:10592000FFFFFFFF0000000000000000000000007B
:105930000000010103070F1F3F7FFFFFFFFFFFFF75
:10594000FFFFFFFFFFFFFFFFFFFFFFFFFFFFFFFF67
:10595000FFFFFFFFFFFFFFFFFFFFFFFFFFFFFFFF57
:10596000FFFFFFFFFFFFFFFFFFFFFFFFFFFFFFFF47
:10597000FFFFFFFFFFFFFFFFFFFFFFFFFFFFFFFF37
:10598000FFFFFFFFFFFFFFFFFFFFFFFFFFFFFFFF27
:10599000FFFFFFFFFFFFFFFFFFFFFFFFFFFFFFFF17
:1059A000FFFFFFFFFFFFFFFFFFFFFFFFFFFFFFFF07
:1059B000FFFFFFFFFFFFFFFFFFFFFFFFFFFEFCFCFE
:1059C000F8F0E0C0C080000000000000000000000F
:1059D00000000000000000000000000000000000C7
:1059E00000000000000000000000000000000000B7
:1059F00000000000000000000000000000000000A7
:105A00000000000000000000000000000000000096
:105A10000000000000000000000000000000000086
:105A20000000000000000000000000000000000076
:105A30000000000000000000000000000000000066
:105A40000000000000000000000000000000000056
:105A50000000000000000000000000000000000046
:105A60000000000000000000000000000000000036
:105A700000000000000000000000000103070F1FED
:105A80003F7FFFFFFFFFFFFFFFFFFFFFFFFFFFFF66
:105A9000FFFFFFFFFFFFFFFFFFFFFFFFFFFFFFFF16
:105AA000FFFFFFFFFFFFFFFFFFFFFFFFFFFFFFFF06
:105AB000FFFFFFFFFFFFFFFFFFFFFFFFFFFFFFFFF6
:105AC000FFFFFFFFFFFFFFFFFFFFFFFFFFFFFFFFE6
